{
  "_format": "hh-sol-artifact-1",
  "contractName": "AntiBotStandardToken",
  "sourceName": "contracts/standard/AntiBotStandardToken.sol",
  "abi": [
    {
      "inputs": [
        {
          "internalType": "string",
          "name": "name_",
          "type": "string"
        },
        {
          "internalType": "string",
          "name": "symbol_",
          "type": "string"
        },
        {
          "internalType": "uint8",
          "name": "decimals_",
          "type": "uint8"
        },
        {
          "internalType": "uint256",
          "name": "totalSupply_",
          "type": "uint256"
        },
        {
          "internalType": "address",
          "name": "pinkAntiBot_",
          "type": "address"
        },
        {
          "internalType": "address",
          "name": "serviceFeeReceiver_",
          "type": "address"
        },
        {
          "internalType": "uint256",
          "name": "serviceFee_",
          "type": "uint256"
        }
      ],
      "stateMutability": "payable",
      "type": "constructor"
    },
    {
      "anonymous": false,
      "inputs": [
        {
          "indexed": true,
          "internalType": "address",
          "name": "owner",
          "type": "address"
        },
        {
          "indexed": true,
          "internalType": "address",
          "name": "spender",
          "type": "address"
        },
        {
          "indexed": false,
          "internalType": "uint256",
          "name": "value",
          "type": "uint256"
        }
      ],
      "name": "Approval",
      "type": "event"
    },
    {
      "anonymous": false,
      "inputs": [
        {
          "indexed": true,
          "internalType": "address",
          "name": "previousOwner",
          "type": "address"
        },
        {
          "indexed": true,
          "internalType": "address",
          "name": "newOwner",
          "type": "address"
        }
      ],
      "name": "OwnershipTransferred",
      "type": "event"
    },
    {
      "anonymous": false,
      "inputs": [
        {
          "indexed": true,
          "internalType": "address",
          "name": "owner",
          "type": "address"
        },
        {
          "indexed": true,
          "internalType": "address",
          "name": "token",
          "type": "address"
        },
        {
          "indexed": false,
          "internalType": "enum TokenType",
          "name": "tokenType",
          "type": "uint8"
        },
        {
          "indexed": false,
          "internalType": "uint256",
          "name": "version",
          "type": "uint256"
        }
      ],
      "name": "TokenCreated",
      "type": "event"
    },
    {
      "anonymous": false,
      "inputs": [
        {
          "indexed": true,
          "internalType": "address",
          "name": "from",
          "type": "address"
        },
        {
          "indexed": true,
          "internalType": "address",
          "name": "to",
          "type": "address"
        },
        {
          "indexed": false,
          "internalType": "uint256",
          "name": "value",
          "type": "uint256"
        }
      ],
      "name": "Transfer",
      "type": "event"
    },
    {
      "inputs": [],
      "name": "VERSION",
      "outputs": [
        {
          "internalType": "uint256",
          "name": "",
          "type": "uint256"
        }
      ],
      "stateMutability": "view",
      "type": "function"
    },
    {
      "inputs": [
        {
          "internalType": "address",
          "name": "owner",
          "type": "address"
        },
        {
          "internalType": "address",
          "name": "spender",
          "type": "address"
        }
      ],
      "name": "allowance",
      "outputs": [
        {
          "internalType": "uint256",
          "name": "",
          "type": "uint256"
        }
      ],
      "stateMutability": "view",
      "type": "function"
    },
    {
      "inputs": [
        {
          "internalType": "address",
          "name": "spender",
          "type": "address"
        },
        {
          "internalType": "uint256",
          "name": "amount",
          "type": "uint256"
        }
      ],
      "name": "approve",
      "outputs": [
        {
          "internalType": "bool",
          "name": "",
          "type": "bool"
        }
      ],
      "stateMutability": "nonpayable",
      "type": "function"
    },
    {
      "inputs": [
        {
          "internalType": "address",
          "name": "account",
          "type": "address"
        }
      ],
      "name": "balanceOf",
      "outputs": [
        {
          "internalType": "uint256",
          "name": "",
          "type": "uint256"
        }
      ],
      "stateMutability": "view",
      "type": "function"
    },
    {
      "inputs": [],
      "name": "decimals",
      "outputs": [
        {
          "internalType": "uint8",
          "name": "",
          "type": "uint8"
        }
      ],
      "stateMutability": "view",
      "type": "function"
    },
    {
      "inputs": [
        {
          "internalType": "address",
          "name": "spender",
          "type": "address"
        },
        {
          "internalType": "uint256",
          "name": "subtractedValue",
          "type": "uint256"
        }
      ],
      "name": "decreaseAllowance",
      "outputs": [
        {
          "internalType": "bool",
          "name": "",
          "type": "bool"
        }
      ],
      "stateMutability": "nonpayable",
      "type": "function"
    },
    {
      "inputs": [],
      "name": "enableAntiBot",
      "outputs": [
        {
          "internalType": "bool",
          "name": "",
          "type": "bool"
        }
      ],
      "stateMutability": "view",
      "type": "function"
    },
    {
      "inputs": [
        {
          "internalType": "address",
          "name": "spender",
          "type": "address"
        },
        {
          "internalType": "uint256",
          "name": "addedValue",
          "type": "uint256"
        }
      ],
      "name": "increaseAllowance",
      "outputs": [
        {
          "internalType": "bool",
          "name": "",
          "type": "bool"
        }
      ],
      "stateMutability": "nonpayable",
      "type": "function"
    },
    {
      "inputs": [],
      "name": "name",
      "outputs": [
        {
          "internalType": "string",
          "name": "",
          "type": "string"
        }
      ],
      "stateMutability": "view",
      "type": "function"
    },
    {
      "inputs": [],
      "name": "owner",
      "outputs": [
        {
          "internalType": "address",
          "name": "",
          "type": "address"
        }
      ],
      "stateMutability": "view",
      "type": "function"
    },
    {
      "inputs": [],
      "name": "pinkAntiBot",
      "outputs": [
        {
          "internalType": "contract IPinkAntiBot",
          "name": "",
          "type": "address"
        }
      ],
      "stateMutability": "view",
      "type": "function"
    },
    {
      "inputs": [],
      "name": "renounceOwnership",
      "outputs": [],
      "stateMutability": "nonpayable",
      "type": "function"
    },
    {
      "inputs": [
        {
          "internalType": "bool",
          "name": "_enable",
          "type": "bool"
        }
      ],
      "name": "setEnableAntiBot",
      "outputs": [],
      "stateMutability": "nonpayable",
      "type": "function"
    },
    {
      "inputs": [],
      "name": "symbol",
      "outputs": [
        {
          "internalType": "string",
          "name": "",
          "type": "string"
        }
      ],
      "stateMutability": "view",
      "type": "function"
    },
    {
      "inputs": [],
      "name": "totalSupply",
      "outputs": [
        {
          "internalType": "uint256",
          "name": "",
          "type": "uint256"
        }
      ],
      "stateMutability": "view",
      "type": "function"
    },
    {
      "inputs": [
        {
          "internalType": "address",
          "name": "recipient",
          "type": "address"
        },
        {
          "internalType": "uint256",
          "name": "amount",
          "type": "uint256"
        }
      ],
      "name": "transfer",
      "outputs": [
        {
          "internalType": "bool",
          "name": "",
          "type": "bool"
        }
      ],
      "stateMutability": "nonpayable",
      "type": "function"
    },
    {
      "inputs": [
        {
          "internalType": "address",
          "name": "sender",
          "type": "address"
        },
        {
          "internalType": "address",
          "name": "recipient",
          "type": "address"
        },
        {
          "internalType": "uint256",
          "name": "amount",
          "type": "uint256"
        }
      ],
      "name": "transferFrom",
      "outputs": [
        {
          "internalType": "bool",
          "name": "",
          "type": "bool"
        }
      ],
      "stateMutability": "nonpayable",
      "type": "function"
    },
    {
      "inputs": [
        {
          "internalType": "address",
          "name": "newOwner",
          "type": "address"
        }
      ],
      "name": "transferOwnership",
      "outputs": [],
      "stateMutability": "nonpayable",
      "type": "function"
    }
  ],
  "bytecode": "0x608060405260405162002578380380620025788339818101604052810190620000299190620006ab565b620000496200003d6200028160201b60201c565b6200028960201b60201c565b86600390805190602001906200006192919062000544565b5085600490805190602001906200007a92919062000544565b5084600560006101000a81548160ff021916908360ff160217905550620000b7620000aa6200034d60201b60201c565b856200037660201b60201c565b82600760006101000a81548173ffffffffffffffffffffffffffffffffffffffff021916908373ffffffffffffffffffffffffffffffffffffffff160217905550600760009054906101000a900473ffffffffffffffffffffffffffffffffffffffff1673ffffffffffffffffffffffffffffffffffffffff166318e02bd9620001466200034d60201b60201c565b6040518263ffffffff1660e01b8152600401620001649190620007e4565b600060405180830381600087803b1580156200017f57600080fd5b505af115801562000194573d6000803e3d6000fd5b505050506001600760146101000a81548160ff0219169083151502179055503073ffffffffffffffffffffffffffffffffffffffff16620001da6200034d60201b60201c565b73ffffffffffffffffffffffffffffffffffffffff167f56358b41df5fa59f5639228f0930994cbdde383c8a8fd74e06c04e1deebe35626001806040516200022492919062000801565b60405180910390a38173ffffffffffffffffffffffffffffffffffffffff166108fc829081150290604051600060405180830381858888f1935050505015801562000273573d6000803e3d6000fd5b505050505050505062000bab565b600033905090565b60008060009054906101000a900473ffffffffffffffffffffffffffffffffffffffff169050816000806101000a81548173ffffffffffffffffffffffffffffffffffffffff021916908373ffffffffffffffffffffffffffffffffffffffff1602179055508173ffffffffffffffffffffffffffffffffffffffff168173ffffffffffffffffffffffffffffffffffffffff167f8be0079c531659141344cd1fd0a4f28419497f9722a3daafe3b4186f6b6457e060405160405180910390a35050565b60008060009054906101000a900473ffffffffffffffffffffffffffffffffffffffff16905090565b600073ffffffffffffffffffffffffffffffffffffffff168273ffffffffffffffffffffffffffffffffffffffff161415620003e9576040517f08c379a0000000000000000000000000000000000000000000000000000000008152600401620003e0906200082e565b60405180910390fd5b620003fd600083836200052760201b60201c565b62000419816006546200052c60201b62000ac71790919060201c565b6006819055506200047881600160008573ffffffffffffffffffffffffffffffffffffffff1673ffffffffffffffffffffffffffffffffffffffff168152602001908152602001600020546200052c60201b62000ac71790919060201c565b600160008473ffffffffffffffffffffffffffffffffffffffff1673ffffffffffffffffffffffffffffffffffffffff168152602001908152602001600020819055508173ffffffffffffffffffffffffffffffffffffffff16600073ffffffffffffffffffffffffffffffffffffffff167fddf252ad1be2c89b69c2b068fc378daa952ba7f163c4a11628f55a4df523b3ef836040516200051b919062000850565b60405180910390a35050565b505050565b600081836200053c9190620008dd565b905092915050565b8280546200055290620009e4565b90600052602060002090601f016020900481019282620005765760008555620005c2565b82601f106200059157805160ff1916838001178555620005c2565b82800160010185558215620005c2579182015b82811115620005c1578251825591602001919060010190620005a4565b5b509050620005d19190620005d5565b5090565b5b80821115620005f0576000816000905550600101620005d6565b5090565b60006200060b620006058462000896565b6200086d565b9050828152602081018484840111156200062457600080fd5b62000631848285620009ae565b509392505050565b6000815190506200064a8162000b5d565b92915050565b600082601f8301126200066257600080fd5b815162000674848260208601620005f4565b91505092915050565b6000815190506200068e8162000b77565b92915050565b600081519050620006a58162000b91565b92915050565b600080600080600080600060e0888a031215620006c757600080fd5b600088015167ffffffffffffffff811115620006e257600080fd5b620006f08a828b0162000650565b975050602088015167ffffffffffffffff8111156200070e57600080fd5b6200071c8a828b0162000650565b96505060406200072f8a828b0162000694565b9550506060620007428a828b016200067d565b9450506080620007558a828b0162000639565b93505060a0620007688a828b0162000639565b92505060c06200077b8a828b016200067d565b91505092959891949750929550565b62000795816200093a565b82525050565b620007a6816200099a565b82525050565b6000620007bb601f83620008cc565b9150620007c88262000b1d565b602082019050919050565b620007de8162000983565b82525050565b6000602082019050620007fb60008301846200078a565b92915050565b60006040820190506200081860008301856200079b565b620008276020830184620007d3565b9392505050565b600060208201905081810360008301526200084981620007ac565b9050919050565b6000602082019050620008676000830184620007d3565b92915050565b6000620008796200088c565b905062000887828262000a1a565b919050565b6000604051905090565b600067ffffffffffffffff821115620008b457620008b362000add565b5b620008bf8262000b0c565b9050602081019050919050565b600082825260208201905092915050565b6000620008ea8262000983565b9150620008f78362000983565b9250827fffffffffffffffffffffffffffffffffffffffffffffffffffffffffffffffff038211156200092f576200092e62000a50565b5b828201905092915050565b6000620009478262000963565b9050919050565b60008190506200095e8262000b46565b919050565b600073ffffffffffffffffffffffffffffffffffffffff82169050919050565b6000819050919050565b600060ff82169050919050565b6000620009a7826200094e565b9050919050565b60005b83811015620009ce578082015181840152602081019050620009b1565b83811115620009de576000848401525b50505050565b60006002820490506001821680620009fd57607f821691505b6020821081141562000a145762000a1362000aae565b5b50919050565b62000a258262000b0c565b810181811067ffffffffffffffff8211171562000a475762000a4662000add565b5b80604052505050565b7f4e487b7100000000000000000000000000000000000000000000000000000000600052601160045260246000fd5b7f4e487b7100000000000000000000000000000000000000000000000000000000600052602160045260246000fd5b7f4e487b7100000000000000000000000000000000000000000000000000000000600052602260045260246000fd5b7f4e487b7100000000000000000000000000000000000000000000000000000000600052604160045260246000fd5b6000601f19601f8301169050919050565b7f45524332303a206d696e7420746f20746865207a65726f206164647265737300600082015250565b6008811062000b5a5762000b5962000a7f565b5b50565b62000b68816200093a565b811462000b7457600080fd5b50565b62000b828162000983565b811462000b8e57600080fd5b50565b62000b9c816200098d565b811462000ba857600080fd5b50565b6119bd8062000bbb6000396000f3fe608060405234801561001057600080fd5b50600436106101165760003560e01c806370a08231116100a2578063a457c2d711610071578063a457c2d7146102d3578063a9059cbb14610303578063dd62ed3e14610333578063f2fde38b14610363578063ffa1ad741461037f57610116565b806370a082311461025d578063715018a61461028d5780638da5cb5b1461029757806395d89b41146102b557610116565b806323b872dd116100e957806323b872dd146101a3578063241ec3be146101d3578063313ce567146101f1578063395093511461020f578063407133d21461023f57610116565b806306fdde031461011b578063095ea7b31461013957806318160ddd146101695780631f46b1c614610187575b600080fd5b61012361039d565b6040516101309190611444565b60405180910390f35b610153600480360381019061014e9190611201565b61042f565b604051610160919061140e565b60405180910390f35b61017161044d565b60405161017e9190611526565b60405180910390f35b6101a1600480360381019061019c919061123d565b610457565b005b6101bd60048036038101906101b891906111b2565b6104f0565b6040516101ca919061140e565b60405180910390f35b6101db6105c9565b6040516101e8919061140e565b60405180910390f35b6101f96105dc565b6040516102069190611541565b60405180910390f35b61022960048036038101906102249190611201565b6105f3565b604051610236919061140e565b60405180910390f35b6102476106a6565b6040516102549190611429565b60405180910390f35b6102776004803603810190610272919061114d565b6106cc565b6040516102849190611526565b60405180910390f35b610295610715565b005b61029f61079d565b6040516102ac91906113bc565b60405180910390f35b6102bd6107c6565b6040516102ca9190611444565b60405180910390f35b6102ed60048036038101906102e89190611201565b610858565b6040516102fa919061140e565b60405180910390f35b61031d60048036038101906103189190611201565b610925565b60405161032a919061140e565b60405180910390f35b61034d60048036038101906103489190611176565b610943565b60405161035a9190611526565b60405180910390f35b61037d6004803603810190610378919061114d565b6109ca565b005b610387610ac2565b6040516103949190611526565b60405180910390f35b6060600380546103ac9061167a565b80601f01602080910402602001604051908101604052809291908181526020018280546103d89061167a565b80156104255780601f106103fa57610100808354040283529160200191610425565b820191906000526020600020905b81548152906001019060200180831161040857829003601f168201915b5050505050905090565b600061044361043c610add565b8484610ae5565b6001905092915050565b6000600654905090565b61045f610add565b73ffffffffffffffffffffffffffffffffffffffff1661047d61079d565b73ffffffffffffffffffffffffffffffffffffffff16146104d3576040517f08c379a00000000000000000000000000000000000000000000000000000000081526004016104ca906114c6565b60405180910390fd5b80600760146101000a81548160ff02191690831515021790555050565b60006104fd848484610cb0565b6105be84610509610add565b6105b98560405180606001604052806028815260200161193b60289139600260008b73ffffffffffffffffffffffffffffffffffffffff1673ffffffffffffffffffffffffffffffffffffffff168152602001908152602001600020600061056f610add565b73ffffffffffffffffffffffffffffffffffffffff1673ffffffffffffffffffffffffffffffffffffffff16815260200190815260200160002054610ff09092919063ffffffff16565b610ae5565b600190509392505050565b600760149054906101000a900460ff1681565b6000600560009054906101000a900460ff16905090565b600061069c610600610add565b846106978560026000610611610add565b73ffffffffffffffffffffffffffffffffffffffff1673ffffffffffffffffffffffffffffffffffffffff16815260200190815260200160002060008973ffffffffffffffffffffffffffffffffffffffff1673ffffffffffffffffffffffffffffffffffffffff16815260200190815260200160002054610ac790919063ffffffff16565b610ae5565b6001905092915050565b600760009054906101000a900473ffffffffffffffffffffffffffffffffffffffff1681565b6000600160008373ffffffffffffffffffffffffffffffffffffffff1673ffffffffffffffffffffffffffffffffffffffff168152602001908152602001600020549050919050565b61071d610add565b73ffffffffffffffffffffffffffffffffffffffff1661073b61079d565b73ffffffffffffffffffffffffffffffffffffffff1614610791576040517f08c379a0000000000000000000000000000000000000000000000000000000008152600401610788906114c6565b60405180910390fd5b61079b6000611045565b565b60008060009054906101000a900473ffffffffffffffffffffffffffffffffffffffff16905090565b6060600480546107d59061167a565b80601f01602080910402602001604051908101604052809291908181526020018280546108019061167a565b801561084e5780601f106108235761010080835404028352916020019161084e565b820191906000526020600020905b81548152906001019060200180831161083157829003601f168201915b5050505050905090565b600061091b610865610add565b8461091685604051806060016040528060258152602001611963602591396002600061088f610add565b73ffffffffffffffffffffffffffffffffffffffff1673ffffffffffffffffffffffffffffffffffffffff16815260200190815260200160002060008a73ffffffffffffffffffffffffffffffffffffffff1673ffffffffffffffffffffffffffffffffffffffff16815260200190815260200160002054610ff09092919063ffffffff16565b610ae5565b6001905092915050565b6000610939610932610add565b8484610cb0565b6001905092915050565b6000600260008473ffffffffffffffffffffffffffffffffffffffff1673ffffffffffffffffffffffffffffffffffffffff16815260200190815260200160002060008373ffffffffffffffffffffffffffffffffffffffff1673ffffffffffffffffffffffffffffffffffffffff16815260200190815260200160002054905092915050565b6109d2610add565b73ffffffffffffffffffffffffffffffffffffffff166109f061079d565b73ffffffffffffffffffffffffffffffffffffffff1614610a46576040517f08c379a0000000000000000000000000000000000000000000000000000000008152600401610a3d906114c6565b60405180910390fd5b600073ffffffffffffffffffffffffffffffffffffffff168173ffffffffffffffffffffffffffffffffffffffff161415610ab6576040517f08c379a0000000000000000000000000000000000000000000000000000000008152600401610aad90611486565b60405180910390fd5b610abf81611045565b50565b600181565b60008183610ad59190611578565b905092915050565b600033905090565b600073ffffffffffffffffffffffffffffffffffffffff168373ffffffffffffffffffffffffffffffffffffffff161415610b55576040517f08c379a0000000000000000000000000000000000000000000000000000000008152600401610b4c90611506565b60405180910390fd5b600073ffffffffffffffffffffffffffffffffffffffff168273ffffffffffffffffffffffffffffffffffffffff161415610bc5576040517f08c379a0000000000000000000000000000000000000000000000000000000008152600401610bbc906114a6565b60405180910390fd5b80600260008573ffffffffffffffffffffffffffffffffffffffff1673ffffffffffffffffffffffffffffffffffffffff16815260200190815260200160002060008473ffffffffffffffffffffffffffffffffffffffff1673ffffffffffffffffffffffffffffffffffffffff168152602001908152602001600020819055508173ffffffffffffffffffffffffffffffffffffffff168373ffffffffffffffffffffffffffffffffffffffff167f8c5be1e5ebec7d5bd14f71427d1e84f3dd0314c0f7b2291e5b200ac8c7c3b92583604051610ca39190611526565b60405180910390a3505050565b600073ffffffffffffffffffffffffffffffffffffffff168373ffffffffffffffffffffffffffffffffffffffff161415610d20576040517f08c379a0000000000000000000000000000000000000000000000000000000008152600401610d17906114e6565b60405180910390fd5b600073ffffffffffffffffffffffffffffffffffffffff168273ffffffffffffffffffffffffffffffffffffffff161415610d90576040517f08c379a0000000000000000000000000000000000000000000000000000000008152600401610d8790611466565b60405180910390fd5b600760149054906101000a900460ff1615610e3757600760009054906101000a900473ffffffffffffffffffffffffffffffffffffffff1673ffffffffffffffffffffffffffffffffffffffff1663487608588484846040518463ffffffff1660e01b8152600401610e04939291906113d7565b600060405180830381600087803b158015610e1e57600080fd5b505af1158015610e32573d6000803e3d6000fd5b505050505b610e42838383611109565b610eae8160405180606001604052806026815260200161191560269139600160008773ffffffffffffffffffffffffffffffffffffffff1673ffffffffffffffffffffffffffffffffffffffff16815260200190815260200160002054610ff09092919063ffffffff16565b600160008573ffffffffffffffffffffffffffffffffffffffff1673ffffffffffffffffffffffffffffffffffffffff16815260200190815260200160002081905550610f4381600160008573ffffffffffffffffffffffffffffffffffffffff1673ffffffffffffffffffffffffffffffffffffffff16815260200190815260200160002054610ac790919063ffffffff16565b600160008473ffffffffffffffffffffffffffffffffffffffff1673ffffffffffffffffffffffffffffffffffffffff168152602001908152602001600020819055508173ffffffffffffffffffffffffffffffffffffffff168373ffffffffffffffffffffffffffffffffffffffff167fddf252ad1be2c89b69c2b068fc378daa952ba7f163c4a11628f55a4df523b3ef83604051610fe39190611526565b60405180910390a3505050565b6000838311158290611038576040517f08c379a000000000000000000000000000000000000000000000000000000000815260040161102f9190611444565b60405180910390fd5b5082840390509392505050565b60008060009054906101000a900473ffffffffffffffffffffffffffffffffffffffff169050816000806101000a81548173ffffffffffffffffffffffffffffffffffffffff021916908373ffffffffffffffffffffffffffffffffffffffff1602179055508173ffffffffffffffffffffffffffffffffffffffff168173ffffffffffffffffffffffffffffffffffffffff167f8be0079c531659141344cd1fd0a4f28419497f9722a3daafe3b4186f6b6457e060405160405180910390a35050565b505050565b60008135905061111d816118cf565b92915050565b600081359050611132816118e6565b92915050565b600081359050611147816118fd565b92915050565b60006020828403121561115f57600080fd5b600061116d8482850161110e565b91505092915050565b6000806040838503121561118957600080fd5b60006111978582860161110e565b92505060206111a88582860161110e565b9150509250929050565b6000806000606084860312156111c757600080fd5b60006111d58682870161110e565b93505060206111e68682870161110e565b92505060406111f786828701611138565b9150509250925092565b6000806040838503121561121457600080fd5b60006112228582860161110e565b925050602061123385828601611138565b9150509250929050565b60006020828403121561124f57600080fd5b600061125d84828501611123565b91505092915050565b61126f816115ce565b82525050565b61127e816115e0565b82525050565b61128d81611623565b82525050565b600061129e8261155c565b6112a88185611567565b93506112b8818560208601611647565b6112c18161170a565b840191505092915050565b60006112d9602383611567565b91506112e48261171b565b604082019050919050565b60006112fc602683611567565b91506113078261176a565b604082019050919050565b600061131f602283611567565b915061132a826117b9565b604082019050919050565b6000611342602083611567565b915061134d82611808565b602082019050919050565b6000611365602583611567565b915061137082611831565b604082019050919050565b6000611388602483611567565b915061139382611880565b604082019050919050565b6113a78161160c565b82525050565b6113b681611616565b82525050565b60006020820190506113d16000830184611266565b92915050565b60006060820190506113ec6000830186611266565b6113f96020830185611266565b611406604083018461139e565b949350505050565b60006020820190506114236000830184611275565b92915050565b600060208201905061143e6000830184611284565b92915050565b6000602082019050818103600083015261145e8184611293565b905092915050565b6000602082019050818103600083015261147f816112cc565b9050919050565b6000602082019050818103600083015261149f816112ef565b9050919050565b600060208201905081810360008301526114bf81611312565b9050919050565b600060208201905081810360008301526114df81611335565b9050919050565b600060208201905081810360008301526114ff81611358565b9050919050565b6000602082019050818103600083015261151f8161137b565b9050919050565b600060208201905061153b600083018461139e565b92915050565b600060208201905061155660008301846113ad565b92915050565b600081519050919050565b600082825260208201905092915050565b60006115838261160c565b915061158e8361160c565b9250827fffffffffffffffffffffffffffffffffffffffffffffffffffffffffffffffff038211156115c3576115c26116ac565b5b828201905092915050565b60006115d9826115ec565b9050919050565b60008115159050919050565b600073ffffffffffffffffffffffffffffffffffffffff82169050919050565b6000819050919050565b600060ff82169050919050565b600061162e82611635565b9050919050565b6000611640826115ec565b9050919050565b60005b8381101561166557808201518184015260208101905061164a565b83811115611674576000848401525b50505050565b6000600282049050600182168061169257607f821691505b602082108114156116a6576116a56116db565b5b50919050565b7f4e487b7100000000000000000000000000000000000000000000000000000000600052601160045260246000fd5b7f4e487b7100000000000000000000000000000000000000000000000000000000600052602260045260246000fd5b6000601f19601f8301169050919050565b7f45524332303a207472616e7366657220746f20746865207a65726f206164647260008201527f6573730000000000000000000000000000000000000000000000000000000000602082015250565b7f4f776e61626c653a206e6577206f776e657220697320746865207a65726f206160008201527f6464726573730000000000000000000000000000000000000000000000000000602082015250565b7f45524332303a20617070726f766520746f20746865207a65726f20616464726560008201527f7373000000000000000000000000000000000000000000000000000000000000602082015250565b7f4f776e61626c653a2063616c6c6572206973206e6f7420746865206f776e6572600082015250565b7f45524332303a207472616e736665722066726f6d20746865207a65726f20616460008201527f6472657373000000000000000000000000000000000000000000000000000000602082015250565b7f45524332303a20617070726f76652066726f6d20746865207a65726f2061646460008201527f7265737300000000000000000000000000000000000000000000000000000000602082015250565b6118d8816115ce565b81146118e357600080fd5b50565b6118ef816115e0565b81146118fa57600080fd5b50565b6119068161160c565b811461191157600080fd5b5056fe45524332303a207472616e7366657220616d6f756e7420657863656564732062616c616e636545524332303a207472616e7366657220616d6f756e74206578636565647320616c6c6f77616e636545524332303a2064656372656173656420616c6c6f77616e63652062656c6f77207a65726fa2646970667358221220ce4ce35f89281c3c856548ee0d3abd14386c5cd49ba15c02f4b4ee8258a6faab64736f6c63430008040033",
  "linkReferences": {},
  "deployedLinkReferences": {}
}