{
  "_format": "hh-sol-artifact-1",
  "contractName": "BuybackBabyToken",
  "sourceName": "contracts/buyback/BuybackBabyToken.sol",
  "abi": [
    {
      "inputs": [
        {
          "internalType": "string",
          "name": "name_",
          "type": "string"
        },
        {
          "internalType": "string",
          "name": "symbol_",
          "type": "string"
        },
        {
          "internalType": "uint256",
          "name": "totalSupply_",
          "type": "uint256"
        },
        {
          "internalType": "address",
          "name": "rewardToken_",
          "type": "address"
        },
        {
          "internalType": "address",
          "name": "router_",
          "type": "address"
        },
        {
          "internalType": "uint256[5]",
          "name": "feeSettings_",
          "type": "uint256[5]"
        },
        {
          "internalType": "address",
          "name": "serviceFeeReceiver_",
          "type": "address"
        },
        {
          "internalType": "uint256",
          "name": "serviceFee_",
          "type": "uint256"
        }
      ],
      "stateMutability": "payable",
      "type": "constructor"
    },
    {
      "anonymous": false,
      "inputs": [
        {
          "indexed": true,
          "internalType": "address",
          "name": "owner",
          "type": "address"
        },
        {
          "indexed": true,
          "internalType": "address",
          "name": "spender",
          "type": "address"
        },
        {
          "indexed": false,
          "internalType": "uint256",
          "name": "value",
          "type": "uint256"
        }
      ],
      "name": "Approval",
      "type": "event"
    },
    {
      "anonymous": false,
      "inputs": [
        {
          "indexed": false,
          "internalType": "uint256",
          "name": "amountBNB",
          "type": "uint256"
        },
        {
          "indexed": false,
          "internalType": "uint256",
          "name": "amountBOG",
          "type": "uint256"
        }
      ],
      "name": "AutoLiquify",
      "type": "event"
    },
    {
      "anonymous": false,
      "inputs": [
        {
          "indexed": false,
          "internalType": "uint256",
          "name": "duration",
          "type": "uint256"
        }
      ],
      "name": "BuybackMultiplierActive",
      "type": "event"
    },
    {
      "anonymous": false,
      "inputs": [
        {
          "indexed": false,
          "internalType": "address",
          "name": "owner",
          "type": "address"
        }
      ],
      "name": "OwnershipTransferred",
      "type": "event"
    },
    {
      "anonymous": false,
      "inputs": [
        {
          "indexed": true,
          "internalType": "address",
          "name": "owner",
          "type": "address"
        },
        {
          "indexed": true,
          "internalType": "address",
          "name": "token",
          "type": "address"
        },
        {
          "indexed": false,
          "internalType": "enum TokenType",
          "name": "tokenType",
          "type": "uint8"
        },
        {
          "indexed": false,
          "internalType": "uint256",
          "name": "version",
          "type": "uint256"
        }
      ],
      "name": "TokenCreated",
      "type": "event"
    },
    {
      "anonymous": false,
      "inputs": [
        {
          "indexed": true,
          "internalType": "address",
          "name": "from",
          "type": "address"
        },
        {
          "indexed": true,
          "internalType": "address",
          "name": "to",
          "type": "address"
        },
        {
          "indexed": false,
          "internalType": "uint256",
          "name": "value",
          "type": "uint256"
        }
      ],
      "name": "Transfer",
      "type": "event"
    },
    {
      "inputs": [],
      "name": "VERSION",
      "outputs": [
        {
          "internalType": "uint256",
          "name": "",
          "type": "uint256"
        }
      ],
      "stateMutability": "view",
      "type": "function"
    },
    {
      "inputs": [
        {
          "internalType": "address",
          "name": "holder",
          "type": "address"
        },
        {
          "internalType": "address",
          "name": "spender",
          "type": "address"
        }
      ],
      "name": "allowance",
      "outputs": [
        {
          "internalType": "uint256",
          "name": "",
          "type": "uint256"
        }
      ],
      "stateMutability": "view",
      "type": "function"
    },
    {
      "inputs": [
        {
          "internalType": "address",
          "name": "spender",
          "type": "address"
        },
        {
          "internalType": "uint256",
          "name": "amount",
          "type": "uint256"
        }
      ],
      "name": "approve",
      "outputs": [
        {
          "internalType": "bool",
          "name": "",
          "type": "bool"
        }
      ],
      "stateMutability": "nonpayable",
      "type": "function"
    },
    {
      "inputs": [
        {
          "internalType": "address",
          "name": "spender",
          "type": "address"
        }
      ],
      "name": "approveMax",
      "outputs": [
        {
          "internalType": "bool",
          "name": "",
          "type": "bool"
        }
      ],
      "stateMutability": "nonpayable",
      "type": "function"
    },
    {
      "inputs": [
        {
          "internalType": "address",
          "name": "adr",
          "type": "address"
        }
      ],
      "name": "authorize",
      "outputs": [],
      "stateMutability": "nonpayable",
      "type": "function"
    },
    {
      "inputs": [],
      "name": "autoBuybackAccumulator",
      "outputs": [
        {
          "internalType": "uint256",
          "name": "",
          "type": "uint256"
        }
      ],
      "stateMutability": "view",
      "type": "function"
    },
    {
      "inputs": [],
      "name": "autoBuybackAmount",
      "outputs": [
        {
          "internalType": "uint256",
          "name": "",
          "type": "uint256"
        }
      ],
      "stateMutability": "view",
      "type": "function"
    },
    {
      "inputs": [],
      "name": "autoBuybackBlockLast",
      "outputs": [
        {
          "internalType": "uint256",
          "name": "",
          "type": "uint256"
        }
      ],
      "stateMutability": "view",
      "type": "function"
    },
    {
      "inputs": [],
      "name": "autoBuybackBlockPeriod",
      "outputs": [
        {
          "internalType": "uint256",
          "name": "",
          "type": "uint256"
        }
      ],
      "stateMutability": "view",
      "type": "function"
    },
    {
      "inputs": [],
      "name": "autoBuybackCap",
      "outputs": [
        {
          "internalType": "uint256",
          "name": "",
          "type": "uint256"
        }
      ],
      "stateMutability": "view",
      "type": "function"
    },
    {
      "inputs": [],
      "name": "autoBuybackEnabled",
      "outputs": [
        {
          "internalType": "bool",
          "name": "",
          "type": "bool"
        }
      ],
      "stateMutability": "view",
      "type": "function"
    },
    {
      "inputs": [],
      "name": "autoLiquidityReceiver",
      "outputs": [
        {
          "internalType": "address",
          "name": "",
          "type": "address"
        }
      ],
      "stateMutability": "view",
      "type": "function"
    },
    {
      "inputs": [
        {
          "internalType": "address",
          "name": "account",
          "type": "address"
        }
      ],
      "name": "balanceOf",
      "outputs": [
        {
          "internalType": "uint256",
          "name": "",
          "type": "uint256"
        }
      ],
      "stateMutability": "view",
      "type": "function"
    },
    {
      "inputs": [
        {
          "internalType": "address",
          "name": "",
          "type": "address"
        }
      ],
      "name": "buyBacker",
      "outputs": [
        {
          "internalType": "bool",
          "name": "",
          "type": "bool"
        }
      ],
      "stateMutability": "view",
      "type": "function"
    },
    {
      "inputs": [],
      "name": "buybackFee",
      "outputs": [
        {
          "internalType": "uint256",
          "name": "",
          "type": "uint256"
        }
      ],
      "stateMutability": "view",
      "type": "function"
    },
    {
      "inputs": [],
      "name": "buybackMultiplierDenominator",
      "outputs": [
        {
          "internalType": "uint256",
          "name": "",
          "type": "uint256"
        }
      ],
      "stateMutability": "view",
      "type": "function"
    },
    {
      "inputs": [],
      "name": "buybackMultiplierLength",
      "outputs": [
        {
          "internalType": "uint256",
          "name": "",
          "type": "uint256"
        }
      ],
      "stateMutability": "view",
      "type": "function"
    },
    {
      "inputs": [],
      "name": "buybackMultiplierNumerator",
      "outputs": [
        {
          "internalType": "uint256",
          "name": "",
          "type": "uint256"
        }
      ],
      "stateMutability": "view",
      "type": "function"
    },
    {
      "inputs": [],
      "name": "buybackMultiplierTriggeredAt",
      "outputs": [
        {
          "internalType": "uint256",
          "name": "",
          "type": "uint256"
        }
      ],
      "stateMutability": "view",
      "type": "function"
    },
    {
      "inputs": [],
      "name": "clearBuybackMultiplier",
      "outputs": [],
      "stateMutability": "nonpayable",
      "type": "function"
    },
    {
      "inputs": [],
      "name": "decimals",
      "outputs": [
        {
          "internalType": "uint8",
          "name": "",
          "type": "uint8"
        }
      ],
      "stateMutability": "pure",
      "type": "function"
    },
    {
      "inputs": [],
      "name": "distributor",
      "outputs": [
        {
          "internalType": "contract DividendDistributor",
          "name": "",
          "type": "address"
        }
      ],
      "stateMutability": "view",
      "type": "function"
    },
    {
      "inputs": [],
      "name": "distributorGas",
      "outputs": [
        {
          "internalType": "uint256",
          "name": "",
          "type": "uint256"
        }
      ],
      "stateMutability": "view",
      "type": "function"
    },
    {
      "inputs": [],
      "name": "feeDenominator",
      "outputs": [
        {
          "internalType": "uint256",
          "name": "",
          "type": "uint256"
        }
      ],
      "stateMutability": "view",
      "type": "function"
    },
    {
      "inputs": [],
      "name": "getCirculatingSupply",
      "outputs": [
        {
          "internalType": "uint256",
          "name": "",
          "type": "uint256"
        }
      ],
      "stateMutability": "view",
      "type": "function"
    },
    {
      "inputs": [
        {
          "internalType": "uint256",
          "name": "accuracy",
          "type": "uint256"
        }
      ],
      "name": "getLiquidityBacking",
      "outputs": [
        {
          "internalType": "uint256",
          "name": "",
          "type": "uint256"
        }
      ],
      "stateMutability": "view",
      "type": "function"
    },
    {
      "inputs": [],
      "name": "getMultipliedFee",
      "outputs": [
        {
          "internalType": "uint256",
          "name": "",
          "type": "uint256"
        }
      ],
      "stateMutability": "view",
      "type": "function"
    },
    {
      "inputs": [
        {
          "internalType": "bool",
          "name": "selling",
          "type": "bool"
        }
      ],
      "name": "getTotalFee",
      "outputs": [
        {
          "internalType": "uint256",
          "name": "",
          "type": "uint256"
        }
      ],
      "stateMutability": "view",
      "type": "function"
    },
    {
      "inputs": [
        {
          "internalType": "address",
          "name": "adr",
          "type": "address"
        }
      ],
      "name": "isAuthorized",
      "outputs": [
        {
          "internalType": "bool",
          "name": "",
          "type": "bool"
        }
      ],
      "stateMutability": "view",
      "type": "function"
    },
    {
      "inputs": [
        {
          "internalType": "address",
          "name": "",
          "type": "address"
        }
      ],
      "name": "isDividendExempt",
      "outputs": [
        {
          "internalType": "bool",
          "name": "",
          "type": "bool"
        }
      ],
      "stateMutability": "view",
      "type": "function"
    },
    {
      "inputs": [
        {
          "internalType": "address",
          "name": "",
          "type": "address"
        }
      ],
      "name": "isFeeExempt",
      "outputs": [
        {
          "internalType": "bool",
          "name": "",
          "type": "bool"
        }
      ],
      "stateMutability": "view",
      "type": "function"
    },
    {
      "inputs": [
        {
          "internalType": "uint256",
          "name": "target",
          "type": "uint256"
        },
        {
          "internalType": "uint256",
          "name": "accuracy",
          "type": "uint256"
        }
      ],
      "name": "isOverLiquified",
      "outputs": [
        {
          "internalType": "bool",
          "name": "",
          "type": "bool"
        }
      ],
      "stateMutability": "view",
      "type": "function"
    },
    {
      "inputs": [
        {
          "internalType": "address",
          "name": "account",
          "type": "address"
        }
      ],
      "name": "isOwner",
      "outputs": [
        {
          "internalType": "bool",
          "name": "",
          "type": "bool"
        }
      ],
      "stateMutability": "view",
      "type": "function"
    },
    {
      "inputs": [],
      "name": "liquidityFee",
      "outputs": [
        {
          "internalType": "uint256",
          "name": "",
          "type": "uint256"
        }
      ],
      "stateMutability": "view",
      "type": "function"
    },
    {
      "inputs": [],
      "name": "marketingFee",
      "outputs": [
        {
          "internalType": "uint256",
          "name": "",
          "type": "uint256"
        }
      ],
      "stateMutability": "view",
      "type": "function"
    },
    {
      "inputs": [],
      "name": "marketingFeeReceiver",
      "outputs": [
        {
          "internalType": "address",
          "name": "",
          "type": "address"
        }
      ],
      "stateMutability": "view",
      "type": "function"
    },
    {
      "inputs": [],
      "name": "name",
      "outputs": [
        {
          "internalType": "string",
          "name": "",
          "type": "string"
        }
      ],
      "stateMutability": "view",
      "type": "function"
    },
    {
      "inputs": [],
      "name": "pair",
      "outputs": [
        {
          "internalType": "address",
          "name": "",
          "type": "address"
        }
      ],
      "stateMutability": "view",
      "type": "function"
    },
    {
      "inputs": [],
      "name": "reflectionFee",
      "outputs": [
        {
          "internalType": "uint256",
          "name": "",
          "type": "uint256"
        }
      ],
      "stateMutability": "view",
      "type": "function"
    },
    {
      "inputs": [],
      "name": "rewardToken",
      "outputs": [
        {
          "internalType": "address",
          "name": "",
          "type": "address"
        }
      ],
      "stateMutability": "view",
      "type": "function"
    },
    {
      "inputs": [],
      "name": "router",
      "outputs": [
        {
          "internalType": "contract IUniswapV2Router02",
          "name": "",
          "type": "address"
        }
      ],
      "stateMutability": "view",
      "type": "function"
    },
    {
      "inputs": [
        {
          "internalType": "bool",
          "name": "_enabled",
          "type": "bool"
        },
        {
          "internalType": "uint256",
          "name": "_cap",
          "type": "uint256"
        },
        {
          "internalType": "uint256",
          "name": "_amount",
          "type": "uint256"
        },
        {
          "internalType": "uint256",
          "name": "_period",
          "type": "uint256"
        }
      ],
      "name": "setAutoBuybackSettings",
      "outputs": [],
      "stateMutability": "nonpayable",
      "type": "function"
    },
    {
      "inputs": [
        {
          "internalType": "address",
          "name": "acc",
          "type": "address"
        },
        {
          "internalType": "bool",
          "name": "add",
          "type": "bool"
        }
      ],
      "name": "setBuyBacker",
      "outputs": [],
      "stateMutability": "nonpayable",
      "type": "function"
    },
    {
      "inputs": [
        {
          "internalType": "uint256",
          "name": "numerator",
          "type": "uint256"
        },
        {
          "internalType": "uint256",
          "name": "denominator",
          "type": "uint256"
        },
        {
          "internalType": "uint256",
          "name": "length",
          "type": "uint256"
        }
      ],
      "name": "setBuybackMultiplierSettings",
      "outputs": [],
      "stateMutability": "nonpayable",
      "type": "function"
    },
    {
      "inputs": [
        {
          "internalType": "uint256",
          "name": "_minPeriod",
          "type": "uint256"
        },
        {
          "internalType": "uint256",
          "name": "_minDistribution",
          "type": "uint256"
        }
      ],
      "name": "setDistributionCriteria",
      "outputs": [],
      "stateMutability": "nonpayable",
      "type": "function"
    },
    {
      "inputs": [
        {
          "internalType": "uint256",
          "name": "gas",
          "type": "uint256"
        }
      ],
      "name": "setDistributorSettings",
      "outputs": [],
      "stateMutability": "nonpayable",
      "type": "function"
    },
    {
      "inputs": [
        {
          "internalType": "address",
          "name": "_autoLiquidityReceiver",
          "type": "address"
        },
        {
          "internalType": "address",
          "name": "_marketingFeeReceiver",
          "type": "address"
        }
      ],
      "name": "setFeeReceivers",
      "outputs": [],
      "stateMutability": "nonpayable",
      "type": "function"
    },
    {
      "inputs": [
        {
          "internalType": "uint256",
          "name": "_liquidityFee",
          "type": "uint256"
        },
        {
          "internalType": "uint256",
          "name": "_buybackFee",
          "type": "uint256"
        },
        {
          "internalType": "uint256",
          "name": "_reflectionFee",
          "type": "uint256"
        },
        {
          "internalType": "uint256",
          "name": "_marketingFee",
          "type": "uint256"
        },
        {
          "internalType": "uint256",
          "name": "_feeDenominator",
          "type": "uint256"
        }
      ],
      "name": "setFees",
      "outputs": [],
      "stateMutability": "nonpayable",
      "type": "function"
    },
    {
      "inputs": [
        {
          "internalType": "address",
          "name": "holder",
          "type": "address"
        },
        {
          "internalType": "bool",
          "name": "exempt",
          "type": "bool"
        }
      ],
      "name": "setIsDividendExempt",
      "outputs": [],
      "stateMutability": "nonpayable",
      "type": "function"
    },
    {
      "inputs": [
        {
          "internalType": "address",
          "name": "holder",
          "type": "address"
        },
        {
          "internalType": "bool",
          "name": "exempt",
          "type": "bool"
        }
      ],
      "name": "setIsFeeExempt",
      "outputs": [],
      "stateMutability": "nonpayable",
      "type": "function"
    },
    {
      "inputs": [
        {
          "internalType": "bool",
          "name": "_enabled",
          "type": "bool"
        },
        {
          "internalType": "uint256",
          "name": "_amount",
          "type": "uint256"
        }
      ],
      "name": "setSwapBackSettings",
      "outputs": [],
      "stateMutability": "nonpayable",
      "type": "function"
    },
    {
      "inputs": [
        {
          "internalType": "uint256",
          "name": "_target",
          "type": "uint256"
        },
        {
          "internalType": "uint256",
          "name": "_denominator",
          "type": "uint256"
        }
      ],
      "name": "setTargetLiquidity",
      "outputs": [],
      "stateMutability": "nonpayable",
      "type": "function"
    },
    {
      "inputs": [],
      "name": "swapEnabled",
      "outputs": [
        {
          "internalType": "bool",
          "name": "",
          "type": "bool"
        }
      ],
      "stateMutability": "view",
      "type": "function"
    },
    {
      "inputs": [],
      "name": "swapThreshold",
      "outputs": [
        {
          "internalType": "uint256",
          "name": "",
          "type": "uint256"
        }
      ],
      "stateMutability": "view",
      "type": "function"
    },
    {
      "inputs": [],
      "name": "symbol",
      "outputs": [
        {
          "internalType": "string",
          "name": "",
          "type": "string"
        }
      ],
      "stateMutability": "view",
      "type": "function"
    },
    {
      "inputs": [],
      "name": "targetLiquidity",
      "outputs": [
        {
          "internalType": "uint256",
          "name": "",
          "type": "uint256"
        }
      ],
      "stateMutability": "view",
      "type": "function"
    },
    {
      "inputs": [],
      "name": "targetLiquidityDenominator",
      "outputs": [
        {
          "internalType": "uint256",
          "name": "",
          "type": "uint256"
        }
      ],
      "stateMutability": "view",
      "type": "function"
    },
    {
      "inputs": [],
      "name": "totalFee",
      "outputs": [
        {
          "internalType": "uint256",
          "name": "",
          "type": "uint256"
        }
      ],
      "stateMutability": "view",
      "type": "function"
    },
    {
      "inputs": [],
      "name": "totalSupply",
      "outputs": [
        {
          "internalType": "uint256",
          "name": "",
          "type": "uint256"
        }
      ],
      "stateMutability": "view",
      "type": "function"
    },
    {
      "inputs": [
        {
          "internalType": "address",
          "name": "recipient",
          "type": "address"
        },
        {
          "internalType": "uint256",
          "name": "amount",
          "type": "uint256"
        }
      ],
      "name": "transfer",
      "outputs": [
        {
          "internalType": "bool",
          "name": "",
          "type": "bool"
        }
      ],
      "stateMutability": "nonpayable",
      "type": "function"
    },
    {
      "inputs": [
        {
          "internalType": "address",
          "name": "sender",
          "type": "address"
        },
        {
          "internalType": "address",
          "name": "recipient",
          "type": "address"
        },
        {
          "internalType": "uint256",
          "name": "amount",
          "type": "uint256"
        }
      ],
      "name": "transferFrom",
      "outputs": [
        {
          "internalType": "bool",
          "name": "",
          "type": "bool"
        }
      ],
      "stateMutability": "nonpayable",
      "type": "function"
    },
    {
      "inputs": [
        {
          "internalType": "address payable",
          "name": "adr",
          "type": "address"
        }
      ],
      "name": "transferOwnership",
      "outputs": [],
      "stateMutability": "nonpayable",
      "type": "function"
    },
    {
      "inputs": [
        {
          "internalType": "uint256",
          "name": "amount",
          "type": "uint256"
        },
        {
          "internalType": "bool",
          "name": "triggerBuybackMultiplier",
          "type": "bool"
        }
      ],
      "name": "triggerZeusBuyback",
      "outputs": [],
      "stateMutability": "nonpayable",
      "type": "function"
    },
    {
      "inputs": [
        {
          "internalType": "address",
          "name": "adr",
          "type": "address"
        }
      ],
      "name": "unauthorize",
      "outputs": [],
      "stateMutability": "nonpayable",
      "type": "function"
    },
    {
      "stateMutability": "payable",
      "type": "receive"
    }
  ],
  "bytecode": "0x608060405260405162007f0c38038062007f0c833981810160405281019062000029919062000e11565b33806000806101000a81548173ffffffffffffffffffffffffffffffffffffffff021916908373ffffffffffffffffffffffffffffffffffffffff16021790555060018060008373ffffffffffffffffffffffffffffffffffffffff1673ffffffffffffffffffffffffffffffffffffffff16815260200190815260200160002060006101000a81548160ff021916908315150217905550508760029080519060200190620000da92919062000bf1565b508660039080519060200190620000f392919062000bf1565b508560048190555084600560006101000a81548173ffffffffffffffffffffffffffffffffffffffff021916908373ffffffffffffffffffffffffffffffffffffffff16021790555083600660006101000a81548173ffffffffffffffffffffffffffffffffffffffff021916908373ffffffffffffffffffffffffffffffffffffffff160217905550600660009054906101000a900473ffffffffffffffffffffffffffffffffffffffff1673ffffffffffffffffffffffffffffffffffffffff1663c45a01556040518163ffffffff1660e01b815260040160206040518083038186803b158015620001e657600080fd5b505afa158015620001fb573d6000803e3d6000fd5b505050506040513d601f19601f8201168201806040525081019062000221919062000de5565b73ffffffffffffffffffffffffffffffffffffffff1663c9c6539630600660009054906101000a900473ffffffffffffffffffffffffffffffffffffffff1673ffffffffffffffffffffffffffffffffffffffff1663ad5c46486040518163ffffffff1660e01b815260040160206040518083038186803b158015620002a657600080fd5b505afa158015620002bb573d6000803e3d6000fd5b505050506040513d601f19601f82011682018060405250810190620002e1919062000de5565b6040518363ffffffff1660e01b81526004016200030092919062000f62565b602060405180830381600087803b1580156200031b57600080fd5b505af115801562000330573d6000803e3d6000fd5b505050506040513d601f19601f8201168201806040525081019062000356919062000de5565b600760006101000a81548173ffffffffffffffffffffffffffffffffffffffff021916908373ffffffffffffffffffffffffffffffffffffffff1602179055508484604051620003a69062000c82565b620003b392919062000f62565b604051809103906000f080158015620003d0573d6000803e3d6000fd5b50601c60006101000a81548173ffffffffffffffffffffffffffffffffffffffff021916908373ffffffffffffffffffffffffffffffffffffffff16021790555062000422836200098860201b60201c565b6200043262000adb60201b60201c565b6207a120601d819055506001601e60006101000a81548160ff021916908315150217905550614e20600454620004699190620010f1565b601f819055506001602360003373ffffffffffffffffffffffffffffffffffffffff1673ffffffffffffffffffffffffffffffffffffffff16815260200190815260200160002060006101000a81548160ff021916908315150217905550600160246000600760009054906101000a900473ffffffffffffffffffffffffffffffffffffffff1673ffffffffffffffffffffffffffffffffffffffff1673ffffffffffffffffffffffffffffffffffffffff16815260200190815260200160002060006101000a81548160ff0219169083151502179055506001602460003073ffffffffffffffffffffffffffffffffffffffff1673ffffffffffffffffffffffffffffffffffffffff16815260200190815260200160002060006101000a81548160ff02191690831515021790555060016024600061dead73ffffffffffffffffffffffffffffffffffffffff1673ffffffffffffffffffffffffffffffffffffffff16815260200190815260200160002060006101000a81548160ff0219169083151502179055506001602260003373ffffffffffffffffffffffffffffffffffffffff1673ffffffffffffffffffffffffffffffffffffffff16815260200190815260200160002060006101000a81548160ff02191690831515021790555033600860006101000a81548173ffffffffffffffffffffffffffffffffffffffff021916908373ffffffffffffffffffffffffffffffffffffffff16021790555033600960006101000a81548173ffffffffffffffffffffffffffffffffffffffff021916908373ffffffffffffffffffffffffffffffffffffffff160217905550600454602160003073ffffffffffffffffffffffffffffffffffffffff1673ffffffffffffffffffffffffffffffffffffffff1681526020019081526020016000206000600660009054906101000a900473ffffffffffffffffffffffffffffffffffffffff1673ffffffffffffffffffffffffffffffffffffffff1673ffffffffffffffffffffffffffffffffffffffff16815260200190815260200160002081905550600454602160003073ffffffffffffffffffffffffffffffffffffffff1673ffffffffffffffffffffffffffffffffffffffff1681526020019081526020016000206000600760009054906101000a900473ffffffffffffffffffffffffffffffffffffffff1673ffffffffffffffffffffffffffffffffffffffff1673ffffffffffffffffffffffffffffffffffffffff16815260200190815260200160002081905550600454602060003373ffffffffffffffffffffffffffffffffffffffff1673ffffffffffffffffffffffffffffffffffffffff168152602001908152602001600020819055503373ffffffffffffffffffffffffffffffffffffffff16600073ffffffffffffffffffffffffffffffffffffffff167fddf252ad1be2c89b69c2b068fc378daa952ba7f163c4a11628f55a4df523b3ef600454604051620008bf919062000fde565b60405180910390a33073ffffffffffffffffffffffffffffffffffffffff163373ffffffffffffffffffffffffffffffffffffffff167f56358b41df5fa59f5639228f0930994cbdde383c8a8fd74e06c04e1deebe3562600660016040516200092a92919062000f8f565b60405180910390a38173ffffffffffffffffffffffffffffffffffffffff166108fc829081150290604051600060405180830381858888f1935050505015801562000979573d6000803e3d6000fd5b505050505050505050620013c8565b62000ad881600060058110620009c7577f4e487b7100000000000000000000000000000000000000000000000000000000600052603260045260246000fd5b60200201518260016005811062000a07577f4e487b7100000000000000000000000000000000000000000000000000000000600052603260045260246000fd5b60200201518360026005811062000a47577f4e487b7100000000000000000000000000000000000000000000000000000000600052603260045260246000fd5b60200201518460036005811062000a87577f4e487b7100000000000000000000000000000000000000000000000000000000600052603260045260246000fd5b60200201518560046005811062000ac7577f4e487b7100000000000000000000000000000000000000000000000000000000600052603260045260246000fd5b602002015162000b0660201b60201c565b50565b6019601081905550606460118190555060c86012819055506064601381905550610708601581905550565b84600a8190555083600b8190555082600c8190555081600d8190555062000b6e8262000b5a8562000b46888a62000bd960201b620024631790919060201c565b62000bd960201b620024631790919060201c565b62000bd960201b620024631790919060201c565b600e8190555080600f819055506004600f5462000b8c9190620010f1565b600e541062000bd2576040517f08c379a000000000000000000000000000000000000000000000000000000000815260040162000bc99062000fbc565b60405180910390fd5b5050505050565b6000818362000be9919062001094565b905092915050565b82805462000bff90620011c6565b90600052602060002090601f01602090048101928262000c23576000855562000c6f565b82601f1062000c3e57805160ff191683800117855562000c6f565b8280016001018555821562000c6f579182015b8281111562000c6e57825182559160200191906001019062000c51565b5b50905062000c7e919062000c90565b5090565b6123ba8062005b5283390190565b5b8082111562000cab57600081600090555060010162000c91565b5090565b600062000cc662000cc08462001024565b62000ffb565b9050808285602086028201111562000cdd57600080fd5b60005b8581101562000d11578162000cf6888262000dce565b84526020840193506020830192505060018101905062000ce0565b5050509392505050565b600062000d3262000d2c846200104d565b62000ffb565b90508281526020810184848401111562000d4b57600080fd5b62000d5884828562001190565b509392505050565b60008151905062000d718162001394565b92915050565b600082601f83011262000d8957600080fd5b600562000d9884828562000caf565b91505092915050565b600082601f83011262000db357600080fd5b815162000dc584826020860162000d1b565b91505092915050565b60008151905062000ddf81620013ae565b92915050565b60006020828403121562000df857600080fd5b600062000e088482850162000d60565b91505092915050565b600080600080600080600080610180898b03121562000e2f57600080fd5b600089015167ffffffffffffffff81111562000e4a57600080fd5b62000e588b828c0162000da1565b985050602089015167ffffffffffffffff81111562000e7657600080fd5b62000e848b828c0162000da1565b975050604062000e978b828c0162000dce565b965050606062000eaa8b828c0162000d60565b955050608062000ebd8b828c0162000d60565b94505060a062000ed08b828c0162000d77565b93505061014062000ee48b828c0162000d60565b92505061016062000ef88b828c0162000dce565b9150509295985092959890939650565b62000f138162001129565b82525050565b62000f24816200117c565b82525050565b600062000f39603b8362001083565b915062000f46826200132e565b604082019050919050565b62000f5c8162001172565b82525050565b600060408201905062000f79600083018562000f08565b62000f88602083018462000f08565b9392505050565b600060408201905062000fa6600083018562000f19565b62000fb5602083018462000f51565b9392505050565b6000602082019050818103600083015262000fd78162000f2a565b9050919050565b600060208201905062000ff5600083018462000f51565b92915050565b6000620010076200101a565b9050620010158282620011fc565b919050565b6000604051905090565b600067ffffffffffffffff821115620010425762001041620012ee565b5b602082029050919050565b600067ffffffffffffffff8211156200106b576200106a620012ee565b5b62001076826200131d565b9050602081019050919050565b600082825260208201905092915050565b6000620010a18262001172565b9150620010ae8362001172565b9250827fffffffffffffffffffffffffffffffffffffffffffffffffffffffffffffffff03821115620010e657620010e562001232565b5b828201905092915050565b6000620010fe8262001172565b91506200110b8362001172565b9250826200111e576200111d62001261565b5b828204905092915050565b6000620011368262001152565b9050919050565b60008190506200114d826200137d565b919050565b600073ffffffffffffffffffffffffffffffffffffffff82169050919050565b6000819050919050565b600062001189826200113d565b9050919050565b60005b83811015620011b057808201518184015260208101905062001193565b83811115620011c0576000848401525b50505050565b60006002820490506001821680620011df57607f821691505b60208210811415620011f657620011f5620012bf565b5b50919050565b62001207826200131d565b810181811067ffffffffffffffff82111715620012295762001228620012ee565b5b80604052505050565b7f4e487b7100000000000000000000000000000000000000000000000000000000600052601160045260246000fd5b7f4e487b7100000000000000000000000000000000000000000000000000000000600052601260045260246000fd5b7f4e487b7100000000000000000000000000000000000000000000000000000000600052602160045260246000fd5b7f4e487b7100000000000000000000000000000000000000000000000000000000600052602260045260246000fd5b7f4e487b7100000000000000000000000000000000000000000000000000000000600052604160045260246000fd5b6000601f19601f8301169050919050565b7f546f74616c206665652073686f756c64206e6f7420626520677265617465722060008201527f7468616e20312f34206f66206665652064656e6f6d696e61746f720000000000602082015250565b6008811062001391576200139062001290565b5b50565b6200139f8162001129565b8114620013ab57600080fd5b50565b620013b98162001172565b8114620013c557600080fd5b50565b61477a80620013d86000396000f3fe6080604052600436106103c75760003560e01c806370a08231116101f2578063d51ed1c81161010d578063f1f3bca3116100a0578063f7c618c11161006f578063f7c618c114610e9f578063f887ea4014610eca578063fe9fbb8014610ef5578063ffa1ad7414610f32576103ce565b8063f1f3bca314610de7578063f2fde38b14610e24578063f5cfec0a14610e4d578063f708a64f14610e76576103ce565b8063e96fada2116100dc578063e96fada214610d2b578063ecbf666f14610d56578063eff0dc2214610d81578063f0b37c0414610dbe576103ce565b8063d51ed1c814610c5d578063d806d12f14610c9a578063dd62ed3e14610cc5578063df20fd4914610d02576103ce565b8063a4b45c0011610185578063b6a5d7de11610154578063b6a5d7de14610bb3578063b91854f414610bdc578063bfe1092814610c07578063ca33e64c14610c32576103ce565b8063a4b45c0014610b0b578063a8aa1b3114610b34578063a9059cbb14610b5f578063b210b06d14610b9c576103ce565b806392258ec8116101c157806392258ec814610a6157806395d89b4114610a8c57806398118cb414610ab75780639d1944f514610ae2576103ce565b806370a08231146109a357806383ad7994146109e05780638ab6ffc714610a0b578063921250d114610a36576103ce565b80632d48e896116102e2578063571ac8b011610275578063658d4b7f11610244578063658d4b7f146108f95780636b67c4df146109225780636ddd17131461094d5780636e78eb4914610978576103ce565b8063571ac8b01461083b578063591cf08d146108785780635a53c1fb146108a357806360e71962146108ce576103ce565b80633bb8a8d4116102b15780633bb8a8d41461076b5780633f4218e0146107965780634355855a146107d35780634896a63214610810576103ce565b80632d48e896146106af5780632f54bf6e146106d8578063313ce567146107155780633b2d081c14610740576103ce565b8063180b0d7e1161035a578063201e799111610329578063201e7991146105f55780632375ce401461061e57806323b872dd146106475780632b112e4914610684576103ce565b8063180b0d7e1461054957806318160ddd1461057457806319be947b1461059f5780631df4ccfc146105ca576103ce565b8063095ea7b311610396578063095ea7b31461047b5780631023d5d4146104b85780631161ae39146104e357806317d4358314610520576103ce565b80630445b667146103d3578063048c7baf146103fe57806304a66b481461042757806306fdde0314610450576103ce565b366103ce57005b600080fd5b3480156103df57600080fd5b506103e8610f5d565b6040516103f59190614201565b60405180910390f35b34801561040a57600080fd5b5061042560048036038101906104209190613bfe565b610f63565b005b34801561043357600080fd5b5061044e60048036038101906104499190613da0565b610fef565b005b34801561045c57600080fd5b5061046561104b565b604051610472919061415f565b60405180910390f35b34801561048757600080fd5b506104a2600480360381019061049d9190613b5d565b6110dd565b6040516104af91906140c2565b60405180910390f35b3480156104c457600080fd5b506104cd6111cf565b6040516104da9190614201565b60405180910390f35b3480156104ef57600080fd5b5061050a60048036038101906105059190613cc6565b6111d5565b60405161051791906140c2565b60405180910390f35b34801561052c57600080fd5b5061054760048036038101906105429190613b21565b6111ea565b005b34801561055557600080fd5b5061055e61128d565b60405161056b9190614201565b60405180910390f35b34801561058057600080fd5b50610589611293565b6040516105969190614201565b60405180910390f35b3480156105ab57600080fd5b506105b461129d565b6040516105c19190614201565b60405180910390f35b3480156105d657600080fd5b506105df6112a3565b6040516105ec9190614201565b60405180910390f35b34801561060157600080fd5b5061061c60048036038101906106179190613cc6565b6112a9565b005b34801561062a57600080fd5b5061064560048036038101906106409190613d02565b611303565b005b34801561065357600080fd5b5061066e60048036038101906106699190613ad2565b611389565b60405161067b91906140c2565b60405180910390f35b34801561069057600080fd5b5061069961156b565b6040516106a69190614201565b60405180910390f35b3480156106bb57600080fd5b506106d660048036038101906106d19190613cc6565b6115ac565b005b3480156106e457600080fd5b506106ff60048036038101906106fa9190613a1b565b611687565b60405161070c91906140c2565b60405180910390f35b34801561072157600080fd5b5061072a6116e0565b604051610737919061429f565b60405180910390f35b34801561074c57600080fd5b506107556116e9565b6040516107629190614201565b60405180910390f35b34801561077757600080fd5b506107806116ef565b60405161078d91906140c2565b60405180910390f35b3480156107a257600080fd5b506107bd60048036038101906107b89190613a1b565b611702565b6040516107ca91906140c2565b60405180910390f35b3480156107df57600080fd5b506107fa60048036038101906107f59190613a1b565b611722565b60405161080791906140c2565b60405180910390f35b34801561081c57600080fd5b50610825611742565b6040516108329190614201565b60405180910390f35b34801561084757600080fd5b50610862600480360381019061085d9190613a1b565b611748565b60405161086f91906140c2565b60405180910390f35b34801561088457600080fd5b5061088d61175d565b60405161089a9190614201565b60405180910390f35b3480156108af57600080fd5b506108b8611763565b6040516108c59190614201565b60405180910390f35b3480156108da57600080fd5b506108e3611769565b6040516108f09190614201565b60405180910390f35b34801561090557600080fd5b50610920600480360381019061091b9190613b21565b61176f565b005b34801561092e57600080fd5b50610937611812565b6040516109449190614201565b60405180910390f35b34801561095957600080fd5b50610962611818565b60405161096f91906140c2565b60405180910390f35b34801561098457600080fd5b5061098d61182b565b60405161099a9190614201565b60405180910390f35b3480156109af57600080fd5b506109ca60048036038101906109c59190613a1b565b611831565b6040516109d79190614201565b60405180910390f35b3480156109ec57600080fd5b506109f561187a565b604051610a029190614201565b60405180910390f35b348015610a1757600080fd5b50610a20611880565b604051610a2d9190614201565b60405180910390f35b348015610a4257600080fd5b50610a4b611886565b604051610a589190614201565b60405180910390f35b348015610a6d57600080fd5b50610a7661188c565b604051610a839190614201565b60405180910390f35b348015610a9857600080fd5b50610aa1611892565b604051610aae919061415f565b60405180910390f35b348015610ac357600080fd5b50610acc611924565b604051610ad99190614201565b60405180910390f35b348015610aee57600080fd5b50610b096004803603810190610b049190613c61565b61192a565b005b348015610b1757600080fd5b50610b326004803603810190610b2d9190613a96565b6119c1565b005b348015610b4057600080fd5b50610b49611a8f565b604051610b569190613fd9565b60405180910390f35b348015610b6b57600080fd5b50610b866004803603810190610b819190613b5d565b611ab5565b604051610b9391906140c2565b60405180910390f35b348015610ba857600080fd5b50610bb1611aca565b005b348015610bbf57600080fd5b50610bda6004803603810190610bd59190613a1b565b611b1c565b005b348015610be857600080fd5b50610bf1611bbe565b604051610bfe9190614201565b60405180910390f35b348015610c1357600080fd5b50610c1c611bc4565b604051610c2991906140dd565b60405180910390f35b348015610c3e57600080fd5b50610c47611bea565b604051610c549190613fd9565b60405180910390f35b348015610c6957600080fd5b50610c846004803603810190610c7f9190613c61565b611c10565b604051610c919190614201565b60405180910390f35b348015610ca657600080fd5b50610caf611c82565b604051610cbc9190614201565b60405180910390f35b348015610cd157600080fd5b50610cec6004803603810190610ce79190613a96565b611d5f565b604051610cf99190614201565b60405180910390f35b348015610d0e57600080fd5b50610d296004803603810190610d249190613bc2565b611de6565b005b348015610d3757600080fd5b50610d40611e53565b604051610d4d9190613fd9565b60405180910390f35b348015610d6257600080fd5b50610d6b611e79565b604051610d789190614201565b60405180910390f35b348015610d8d57600080fd5b50610da86004803603810190610da39190613a1b565b611e7f565b604051610db591906140c2565b60405180910390f35b348015610dca57600080fd5b50610de56004803603810190610de09190613a1b565b611e9f565b005b348015610df357600080fd5b50610e0e6004803603810190610e099190613b99565b611f42565b604051610e1b9190614201565b60405180910390f35b348015610e3057600080fd5b50610e4b6004803603810190610e469190613a6d565b611f64565b005b348015610e5957600080fd5b50610e746004803603810190610e6f9190613c8a565b61207d565b005b348015610e8257600080fd5b50610e9d6004803603810190610e989190613b21565b61211c565b005b348015610eab57600080fd5b50610eb46123bc565b604051610ec19190613fd9565b60405180910390f35b348015610ed657600080fd5b50610edf6123e2565b604051610eec91906140f8565b60405180910390f35b348015610f0157600080fd5b50610f1c6004803603810190610f179190613a1b565b612408565b604051610f2991906140c2565b60405180910390f35b348015610f3e57600080fd5b50610f4761245e565b604051610f549190614201565b60405180910390f35b601f5481565b610f6c33612408565b610fab576040517f08c379a0000000000000000000000000000000000000000000000000000000008152600401610fa2906141c1565b60405180910390fd5b83601660006101000a81548160ff0219169083151502179055508260178190555060006018819055508160198190555080601a8190555043601b8190555050505050565b610ff833612408565b611037576040517f08c379a000000000000000000000000000000000000000000000000000000000815260040161102e906141c1565b60405180910390fd5b6110448585858585612479565b5050505050565b60606002805461105a9061454e565b80601f01602080910402602001604051908101604052809291908181526020018280546110869061454e565b80156110d35780601f106110a8576101008083540402835291602001916110d3565b820191906000526020600020905b8154815290600101906020018083116110b657829003601f168201915b5050505050905090565b600081602160003373ffffffffffffffffffffffffffffffffffffffff1673ffffffffffffffffffffffffffffffffffffffff16815260200190815260200160002060008573ffffffffffffffffffffffffffffffffffffffff1673ffffffffffffffffffffffffffffffffffffffff168152602001908152602001600020819055508273ffffffffffffffffffffffffffffffffffffffff163373ffffffffffffffffffffffffffffffffffffffff167f8c5be1e5ebec7d5bd14f71427d1e84f3dd0314c0f7b2291e5b200ac8c7c3b925846040516111bd9190614201565b60405180910390a36001905092915050565b60155481565b6000826111e183611c10565b11905092915050565b6111f333612408565b611232576040517f08c379a0000000000000000000000000000000000000000000000000000000008152600401611229906141c1565b60405180910390fd5b80602260008473ffffffffffffffffffffffffffffffffffffffff1673ffffffffffffffffffffffffffffffffffffffff16815260200190815260200160002060006101000a81548160ff0219169083151502179055505050565b600f5481565b6000600454905090565b60145481565b600e5481565b6112b233612408565b6112f1576040517f08c379a00000000000000000000000000000000000000000000000000000000081526004016112e8906141c1565b60405180910390fd5b81601081905550806011819055505050565b61130c33612408565b61134b576040517f08c379a0000000000000000000000000000000000000000000000000000000008152600401611342906141c1565b60405180910390fd5b600282846113599190614365565b1115801561136657508183115b61136f57600080fd5b826012819055508160138190555080601581905550505050565b6000600454602160008673ffffffffffffffffffffffffffffffffffffffff1673ffffffffffffffffffffffffffffffffffffffff16815260200190815260200160002060003373ffffffffffffffffffffffffffffffffffffffff1673ffffffffffffffffffffffffffffffffffffffff1681526020019081526020016000205414611557576114d6826040518060400160405280601681526020017f496e73756666696369656e7420416c6c6f77616e636500000000000000000000815250602160008873ffffffffffffffffffffffffffffffffffffffff1673ffffffffffffffffffffffffffffffffffffffff16815260200190815260200160002060003373ffffffffffffffffffffffffffffffffffffffff1673ffffffffffffffffffffffffffffffffffffffff168152602001908152602001600020546125329092919063ffffffff16565b602160008673ffffffffffffffffffffffffffffffffffffffff1673ffffffffffffffffffffffffffffffffffffffff16815260200190815260200160002060003373ffffffffffffffffffffffffffffffffffffffff1673ffffffffffffffffffffffffffffffffffffffff168152602001908152602001600020819055505b611562848484612587565b90509392505050565b60006115a761157a6000611831565b61159961158861dead611831565b600454612aaa90919063ffffffff16565b612aaa90919063ffffffff16565b905090565b6115b533612408565b6115f4576040517f08c379a00000000000000000000000000000000000000000000000000000000081526004016115eb906141c1565b60405180910390fd5b601c60009054906101000a900473ffffffffffffffffffffffffffffffffffffffff1673ffffffffffffffffffffffffffffffffffffffff16632d48e89683836040518363ffffffff1660e01b8152600401611651929190614276565b600060405180830381600087803b15801561166b57600080fd5b505af115801561167f573d6000803e3d6000fd5b505050505050565b60008060009054906101000a900473ffffffffffffffffffffffffffffffffffffffff1673ffffffffffffffffffffffffffffffffffffffff168273ffffffffffffffffffffffffffffffffffffffff16149050919050565b60006009905090565b600b5481565b601660009054906101000a900460ff1681565b60236020528060005260406000206000915054906101000a900460ff1681565b60246020528060005260406000206000915054906101000a900460ff1681565b60195481565b6000611756826004546110dd565b9050919050565b60175481565b601a5481565b601d5481565b61177833612408565b6117b7576040517f08c379a00000000000000000000000000000000000000000000000000000000081526004016117ae906141c1565b60405180910390fd5b80602360008473ffffffffffffffffffffffffffffffffffffffff1673ffffffffffffffffffffffffffffffffffffffff16815260200190815260200160002060006101000a81548160ff0219169083151502179055505050565b600d5481565b601e60009054906101000a900460ff1681565b60185481565b6000602060008373ffffffffffffffffffffffffffffffffffffffff1673ffffffffffffffffffffffffffffffffffffffff168152602001908152602001600020549050919050565b600c5481565b60115481565b60125481565b60105481565b6060600380546118a19061454e565b80601f01602080910402602001604051908101604052809291908181526020018280546118cd9061454e565b801561191a5780601f106118ef5761010080835404028352916020019161191a565b820191906000526020600020905b8154815290600101906020018083116118fd57829003601f168201915b5050505050905090565b600a5481565b61193333612408565b611972576040517f08c379a0000000000000000000000000000000000000000000000000000000008152600401611969906141c1565b60405180910390fd5b620b71b081106119b7576040517f08c379a00000000000000000000000000000000000000000000000000000000081526004016119ae90614181565b60405180910390fd5b80601d8190555050565b6119ca33612408565b611a09576040517f08c379a0000000000000000000000000000000000000000000000000000000008152600401611a00906141c1565b60405180910390fd5b81600860006101000a81548173ffffffffffffffffffffffffffffffffffffffff021916908373ffffffffffffffffffffffffffffffffffffffff16021790555080600960006101000a81548173ffffffffffffffffffffffffffffffffffffffff021916908373ffffffffffffffffffffffffffffffffffffffff1602179055505050565b600760009054906101000a900473ffffffffffffffffffffffffffffffffffffffff1681565b6000611ac2338484612587565b905092915050565b611ad333612408565b611b12576040517f08c379a0000000000000000000000000000000000000000000000000000000008152600401611b09906141c1565b60405180910390fd5b6000601481905550565b611b2533611687565b611b64576040517f08c379a0000000000000000000000000000000000000000000000000000000008152600401611b5b906141a1565b60405180910390fd5b60018060008373ffffffffffffffffffffffffffffffffffffffff1673ffffffffffffffffffffffffffffffffffffffff16815260200190815260200160002060006101000a81548160ff02191690831515021790555050565b601b5481565b601c60009054906101000a900473ffffffffffffffffffffffffffffffffffffffff1681565b600860009054906101000a900473ffffffffffffffffffffffffffffffffffffffff1681565b6000611c7b611c1d61156b565b611c6d611c5e6002611c50600760009054906101000a900473ffffffffffffffffffffffffffffffffffffffff16611831565b612ac090919063ffffffff16565b85612ac090919063ffffffff16565b612ad690919063ffffffff16565b9050919050565b600042611c9c60155460145461246390919063ffffffff16565b1115611d56576000611ccd42611cbf60155460145461246390919063ffffffff16565b612aaa90919063ffffffff16565b90506000611d10600e54611d02601354611cf4601254600e54612ac090919063ffffffff16565b612ad690919063ffffffff16565b612aaa90919063ffffffff16565b9050611d4d611d3c601554611d2e8585612ac090919063ffffffff16565b612ad690919063ffffffff16565b600e5461246390919063ffffffff16565b92505050611d5c565b600e5490505b90565b6000602160008473ffffffffffffffffffffffffffffffffffffffff1673ffffffffffffffffffffffffffffffffffffffff16815260200190815260200160002060008373ffffffffffffffffffffffffffffffffffffffff1673ffffffffffffffffffffffffffffffffffffffff16815260200190815260200160002054905092915050565b611def33612408565b611e2e576040517f08c379a0000000000000000000000000000000000000000000000000000000008152600401611e25906141c1565b60405180910390fd5b81601e60006101000a81548160ff02191690831515021790555080601f819055505050565b600960009054906101000a900473ffffffffffffffffffffffffffffffffffffffff1681565b60135481565b60226020528060005260406000206000915054906101000a900460ff1681565b611ea833611687565b611ee7576040517f08c379a0000000000000000000000000000000000000000000000000000000008152600401611ede906141a1565b60405180910390fd5b6000600160008373ffffffffffffffffffffffffffffffffffffffff1673ffffffffffffffffffffffffffffffffffffffff16815260200190815260200160002060006101000a81548160ff02191690831515021790555050565b60008115611f5957611f52611c82565b9050611f5f565b600e5490505b919050565b611f6d33611687565b611fac576040517f08c379a0000000000000000000000000000000000000000000000000000000008152600401611fa3906141a1565b60405180910390fd5b806000806101000a81548173ffffffffffffffffffffffffffffffffffffffff021916908373ffffffffffffffffffffffffffffffffffffffff16021790555060018060008373ffffffffffffffffffffffffffffffffffffffff1673ffffffffffffffffffffffffffffffffffffffff16815260200190815260200160002060006101000a81548160ff0219169083151502179055507f04dba622d284ed0014ee4b9a6a68386be1a4c08a4913ae272de89199cc686163816040516120729190613ff4565b60405180910390a150565b61208633612408565b6120c5576040517f08c379a00000000000000000000000000000000000000000000000000000000081526004016120bc906141c1565b60405180910390fd5b6120d18261dead612aec565b801561211857426014819055507f39d2389ec5c1fa77b2c0d374bc61b6d7bd97ccba280fcdeb4e9c7644898d7c3a60155460405161210f9190614201565b60405180910390a15b5050565b61212533612408565b612164576040517f08c379a000000000000000000000000000000000000000000000000000000000815260040161215b906141c1565b60405180910390fd5b3073ffffffffffffffffffffffffffffffffffffffff168273ffffffffffffffffffffffffffffffffffffffff16141580156121ee5750600760009054906101000a900473ffffffffffffffffffffffffffffffffffffffff1673ffffffffffffffffffffffffffffffffffffffff168273ffffffffffffffffffffffffffffffffffffffff1614155b6121f757600080fd5b80602460008473ffffffffffffffffffffffffffffffffffffffff1673ffffffffffffffffffffffffffffffffffffffff16815260200190815260200160002060006101000a81548160ff02191690831515021790555080156122e957601c60009054906101000a900473ffffffffffffffffffffffffffffffffffffffff1673ffffffffffffffffffffffffffffffffffffffff166314b6ca968360006040518363ffffffff1660e01b81526004016122b292919061400f565b600060405180830381600087803b1580156122cc57600080fd5b505af11580156122e0573d6000803e3d6000fd5b505050506123b8565b601c60009054906101000a900473ffffffffffffffffffffffffffffffffffffffff1673ffffffffffffffffffffffffffffffffffffffff166314b6ca9683602060008673ffffffffffffffffffffffffffffffffffffffff1673ffffffffffffffffffffffffffffffffffffffff168152602001908152602001600020546040518363ffffffff1660e01b8152600401612385929190614038565b600060405180830381600087803b15801561239f57600080fd5b505af11580156123b3573d6000803e3d6000fd5b505050505b5050565b600560009054906101000a900473ffffffffffffffffffffffffffffffffffffffff1681565b600660009054906101000a900473ffffffffffffffffffffffffffffffffffffffff1681565b6000600160008373ffffffffffffffffffffffffffffffffffffffff1673ffffffffffffffffffffffffffffffffffffffff16815260200190815260200160002060009054906101000a900460ff169050919050565b600181565b60008183612471919061430f565b905092915050565b84600a8190555083600b8190555082600c8190555081600d819055506124cc826124be856124b0888a61246390919063ffffffff16565b61246390919063ffffffff16565b61246390919063ffffffff16565b600e8190555080600f819055506004600f546124e89190614365565b600e541061252b576040517f08c379a0000000000000000000000000000000000000000000000000000000008152600401612522906141e1565b60405180910390fd5b5050505050565b600083831115829061257a576040517f08c379a0000000000000000000000000000000000000000000000000000000008152600401612571919061415f565b60405180910390fd5b5082840390509392505050565b6000602560009054906101000a900460ff16156125b0576125a9848484612db9565b9050612aa3565b6125b8612f8c565b156125c6576125c5613063565b5b6125ce61369c565b156125dc576125db61374f565b5b612665826040518060400160405280601481526020017f496e73756666696369656e742042616c616e6365000000000000000000000000815250602060008873ffffffffffffffffffffffffffffffffffffffff1673ffffffffffffffffffffffffffffffffffffffff168152602001908152602001600020546125329092919063ffffffff16565b602060008673ffffffffffffffffffffffffffffffffffffffff1673ffffffffffffffffffffffffffffffffffffffff1681526020019081526020016000208190555060006126b3856137ab565b6126bd57826126c9565b6126c8858585613802565b5b905061271d81602060008773ffffffffffffffffffffffffffffffffffffffff1673ffffffffffffffffffffffffffffffffffffffff1681526020019081526020016000205461246390919063ffffffff16565b602060008673ffffffffffffffffffffffffffffffffffffffff1673ffffffffffffffffffffffffffffffffffffffff16815260200190815260200160002081905550602460008673ffffffffffffffffffffffffffffffffffffffff1673ffffffffffffffffffffffffffffffffffffffff16815260200190815260200160002060009054906101000a900460ff1661288357601c60009054906101000a900473ffffffffffffffffffffffffffffffffffffffff1673ffffffffffffffffffffffffffffffffffffffff166314b6ca9686602060008973ffffffffffffffffffffffffffffffffffffffff1673ffffffffffffffffffffffffffffffffffffffff168152602001908152602001600020546040518363ffffffff1660e01b815260040161284d929190614038565b600060405180830381600087803b15801561286757600080fd5b505af1925050508015612878575060015b61288157612882565b5b5b602460008573ffffffffffffffffffffffffffffffffffffffff1673ffffffffffffffffffffffffffffffffffffffff16815260200190815260200160002060009054906101000a900460ff166129a657601c60009054906101000a900473ffffffffffffffffffffffffffffffffffffffff1673ffffffffffffffffffffffffffffffffffffffff166314b6ca9685602060008873ffffffffffffffffffffffffffffffffffffffff1673ffffffffffffffffffffffffffffffffffffffff168152602001908152602001600020546040518363ffffffff1660e01b8152600401612970929190614038565b600060405180830381600087803b15801561298a57600080fd5b505af192505050801561299b575060015b6129a4576129a5565b5b5b601c60009054906101000a900473ffffffffffffffffffffffffffffffffffffffff1673ffffffffffffffffffffffffffffffffffffffff1663ffb2c479601d546040518263ffffffff1660e01b8152600401612a039190614201565b600060405180830381600087803b158015612a1d57600080fd5b505af1925050508015612a2e575060015b612a3757612a38565b5b8373ffffffffffffffffffffffffffffffffffffffff168573ffffffffffffffffffffffffffffffffffffffff167fddf252ad1be2c89b69c2b068fc378daa952ba7f163c4a11628f55a4df523b3ef83604051612a959190614201565b60405180910390a360019150505b9392505050565b60008183612ab891906143f0565b905092915050565b60008183612ace9190614396565b905092915050565b60008183612ae49190614365565b905092915050565b6001602560006101000a81548160ff0219169083151502179055506000600267ffffffffffffffff811115612b4a577f4e487b7100000000000000000000000000000000000000000000000000000000600052604160045260246000fd5b604051908082528060200260200182016040528015612b785781602001602082028036833780820191505090505b509050600660009054906101000a900473ffffffffffffffffffffffffffffffffffffffff1673ffffffffffffffffffffffffffffffffffffffff1663ad5c46486040518163ffffffff1660e01b815260040160206040518083038186803b158015612be357600080fd5b505afa158015612bf7573d6000803e3d6000fd5b505050506040513d601f19601f82011682018060405250810190612c1b9190613a44565b81600081518110612c55577f4e487b7100000000000000000000000000000000000000000000000000000000600052603260045260246000fd5b602002602001019073ffffffffffffffffffffffffffffffffffffffff16908173ffffffffffffffffffffffffffffffffffffffff16815250503081600181518110612cca577f4e487b7100000000000000000000000000000000000000000000000000000000600052603260045260246000fd5b602002602001019073ffffffffffffffffffffffffffffffffffffffff16908173ffffffffffffffffffffffffffffffffffffffff1681525050600660009054906101000a900473ffffffffffffffffffffffffffffffffffffffff1673ffffffffffffffffffffffffffffffffffffffff1663b6f9de958460008486426040518663ffffffff1660e01b8152600401612d679493929190614113565b6000604051808303818588803b158015612d8057600080fd5b505af1158015612d94573d6000803e3d6000fd5b5050505050506000602560006101000a81548160ff0219169083151502179055505050565b6000612e44826040518060400160405280601481526020017f496e73756666696369656e742042616c616e6365000000000000000000000000815250602060008873ffffffffffffffffffffffffffffffffffffffff1673ffffffffffffffffffffffffffffffffffffffff168152602001908152602001600020546125329092919063ffffffff16565b602060008673ffffffffffffffffffffffffffffffffffffffff1673ffffffffffffffffffffffffffffffffffffffff16815260200190815260200160002081905550612ed982602060008673ffffffffffffffffffffffffffffffffffffffff1673ffffffffffffffffffffffffffffffffffffffff1681526020019081526020016000205461246390919063ffffffff16565b602060008573ffffffffffffffffffffffffffffffffffffffff1673ffffffffffffffffffffffffffffffffffffffff168152602001908152602001600020819055508273ffffffffffffffffffffffffffffffffffffffff168473ffffffffffffffffffffffffffffffffffffffff167fddf252ad1be2c89b69c2b068fc378daa952ba7f163c4a11628f55a4df523b3ef84604051612f799190614201565b60405180910390a3600190509392505050565b6000600760009054906101000a900473ffffffffffffffffffffffffffffffffffffffff1673ffffffffffffffffffffffffffffffffffffffff163373ffffffffffffffffffffffffffffffffffffffff1614158015612ff95750602560009054906101000a900460ff16155b80156130115750601e60009054906101000a900460ff165b801561305e5750601f54602060003073ffffffffffffffffffffffffffffffffffffffff1673ffffffffffffffffffffffffffffffffffffffff1681526020019081526020016000205410155b905090565b6001602560006101000a81548160ff021916908315150217905550600061308e6010546011546111d5565b61309a57600a5461309d565b60005b905060006130dd60026130cf600e546130c186601f54612ac090919063ffffffff16565b612ad690919063ffffffff16565b612ad690919063ffffffff16565b905060006130f682601f54612aaa90919063ffffffff16565b90506000600267ffffffffffffffff81111561313b577f4e487b7100000000000000000000000000000000000000000000000000000000600052604160045260246000fd5b6040519080825280602002602001820160405280156131695781602001602082028036833780820191505090505b50905030816000815181106131a7577f4e487b7100000000000000000000000000000000000000000000000000000000600052603260045260246000fd5b602002602001019073ffffffffffffffffffffffffffffffffffffffff16908173ffffffffffffffffffffffffffffffffffffffff1681525050600660009054906101000a900473ffffffffffffffffffffffffffffffffffffffff1673ffffffffffffffffffffffffffffffffffffffff1663ad5c46486040518163ffffffff1660e01b815260040160206040518083038186803b15801561324957600080fd5b505afa15801561325d573d6000803e3d6000fd5b505050506040513d601f19601f820116820180604052508101906132819190613a44565b816001815181106132bb577f4e487b7100000000000000000000000000000000000000000000000000000000600052603260045260246000fd5b602002602001019073ffffffffffffffffffffffffffffffffffffffff16908173ffffffffffffffffffffffffffffffffffffffff16815250506000479050600660009054906101000a900473ffffffffffffffffffffffffffffffffffffffff1673ffffffffffffffffffffffffffffffffffffffff1663791ac9478460008530426040518663ffffffff1660e01b815260040161335e95949392919061421c565b600060405180830381600087803b15801561337857600080fd5b505af115801561338c573d6000803e3d6000fd5b5050505060006133a58247612aaa90919063ffffffff16565b905060006133d16133c0600289612ad690919063ffffffff16565b600e54612aaa90919063ffffffff16565b9050600061340d60026133ff846133f18c88612ac090919063ffffffff16565b612ad690919063ffffffff16565b612ad690919063ffffffff16565b905060006134388361342a600c5487612ac090919063ffffffff16565b612ad690919063ffffffff16565b9050600061346384613455600d5488612ac090919063ffffffff16565b612ad690919063ffffffff16565b9050601c60009054906101000a900473ffffffffffffffffffffffffffffffffffffffff1673ffffffffffffffffffffffffffffffffffffffff1663d0e30db0836040518263ffffffff1660e01b81526004016000604051808303818588803b1580156134cf57600080fd5b505af1935050505080156134e1575060015b6134ea576134eb565b5b600960009054906101000a900473ffffffffffffffffffffffffffffffffffffffff1673ffffffffffffffffffffffffffffffffffffffff166108fc829081150290604051600060405180830381858888f19350505050158015613553573d6000803e3d6000fd5b50600089111561367557600660009054906101000a900473ffffffffffffffffffffffffffffffffffffffff1673ffffffffffffffffffffffffffffffffffffffff1663f305d71984308c600080600860009054906101000a900473ffffffffffffffffffffffffffffffffffffffff16426040518863ffffffff1660e01b81526004016135e696959493929190614061565b6060604051808303818588803b1580156135ff57600080fd5b505af1158015613613573d6000803e3d6000fd5b50505050506040513d601f19601f820116820180604052508101906136389190613d51565b5050507f424db2872186fa7e7afa7a5e902ed3b49a2ef19c2f5431e672462495dd6b4506838a60405161366c929190614276565b60405180910390a15b505050505050505050506000602560006101000a81548160ff021916908315150217905550565b6000600760009054906101000a900473ffffffffffffffffffffffffffffffffffffffff1673ffffffffffffffffffffffffffffffffffffffff163373ffffffffffffffffffffffffffffffffffffffff16141580156137095750602560009054906101000a900460ff16155b80156137215750601660009054906101000a900460ff165b801561373c575043601a54601b54613739919061430f565b11155b801561374a57506019544710155b905090565b61375d60195461dead612aec565b43601b8190555061377b60195460185461246390919063ffffffff16565b60188190555060175460185411156137a9576000601660006101000a81548160ff0219169083151502179055505b565b6000602360008373ffffffffffffffffffffffffffffffffffffffff1673ffffffffffffffffffffffffffffffffffffffff16815260200190815260200160002060009054906101000a900460ff16159050919050565b600080613884600f54613876613867600760009054906101000a900473ffffffffffffffffffffffffffffffffffffffff1673ffffffffffffffffffffffffffffffffffffffff168873ffffffffffffffffffffffffffffffffffffffff1614611f42565b86612ac090919063ffffffff16565b612ad690919063ffffffff16565b90506138d881602060003073ffffffffffffffffffffffffffffffffffffffff1673ffffffffffffffffffffffffffffffffffffffff1681526020019081526020016000205461246390919063ffffffff16565b602060003073ffffffffffffffffffffffffffffffffffffffff1673ffffffffffffffffffffffffffffffffffffffff168152602001908152602001600020819055503073ffffffffffffffffffffffffffffffffffffffff168573ffffffffffffffffffffffffffffffffffffffff167fddf252ad1be2c89b69c2b068fc378daa952ba7f163c4a11628f55a4df523b3ef836040516139789190614201565b60405180910390a36139938184612aaa90919063ffffffff16565b9150509392505050565b6000813590506139ac816146e8565b92915050565b6000815190506139c1816146e8565b92915050565b6000813590506139d6816146ff565b92915050565b6000813590506139eb81614716565b92915050565b600081359050613a008161472d565b92915050565b600081519050613a158161472d565b92915050565b600060208284031215613a2d57600080fd5b6000613a3b8482850161399d565b91505092915050565b600060208284031215613a5657600080fd5b6000613a64848285016139b2565b91505092915050565b600060208284031215613a7f57600080fd5b6000613a8d848285016139c7565b91505092915050565b60008060408385031215613aa957600080fd5b6000613ab78582860161399d565b9250506020613ac88582860161399d565b9150509250929050565b600080600060608486031215613ae757600080fd5b6000613af58682870161399d565b9350506020613b068682870161399d565b9250506040613b17868287016139f1565b9150509250925092565b60008060408385031215613b3457600080fd5b6000613b428582860161399d565b9250506020613b53858286016139dc565b9150509250929050565b60008060408385031215613b7057600080fd5b6000613b7e8582860161399d565b9250506020613b8f858286016139f1565b9150509250929050565b600060208284031215613bab57600080fd5b6000613bb9848285016139dc565b91505092915050565b60008060408385031215613bd557600080fd5b6000613be3858286016139dc565b9250506020613bf4858286016139f1565b9150509250929050565b60008060008060808587031215613c1457600080fd5b6000613c22878288016139dc565b9450506020613c33878288016139f1565b9350506040613c44878288016139f1565b9250506060613c55878288016139f1565b91505092959194509250565b600060208284031215613c7357600080fd5b6000613c81848285016139f1565b91505092915050565b60008060408385031215613c9d57600080fd5b6000613cab858286016139f1565b9250506020613cbc858286016139dc565b9150509250929050565b60008060408385031215613cd957600080fd5b6000613ce7858286016139f1565b9250506020613cf8858286016139f1565b9150509250929050565b600080600060608486031215613d1757600080fd5b6000613d25868287016139f1565b9350506020613d36868287016139f1565b9250506040613d47868287016139f1565b9150509250925092565b600080600060608486031215613d6657600080fd5b6000613d7486828701613a06565b9350506020613d8586828701613a06565b9250506040613d9686828701613a06565b9150509250925092565b600080600080600060a08688031215613db857600080fd5b6000613dc6888289016139f1565b9550506020613dd7888289016139f1565b9450506040613de8888289016139f1565b9350506060613df9888289016139f1565b9250506080613e0a888289016139f1565b9150509295509295909350565b6000613e238383613e3e565b60208301905092915050565b613e388161448b565b82525050565b613e4781614424565b82525050565b613e5681614424565b82525050565b6000613e67826142ca565b613e7181856142ed565b9350613e7c836142ba565b8060005b83811015613ead578151613e948882613e17565b9750613e9f836142e0565b925050600181019050613e80565b5085935050505092915050565b613ec381614448565b82525050565b613ed28161449d565b82525050565b613ee1816144c1565b82525050565b613ef0816144e5565b82525050565b6000613f01826142d5565b613f0b81856142fe565b9350613f1b81856020860161451b565b613f248161460d565b840191505092915050565b6000613f3c601d836142fe565b9150613f478261461e565b602082019050919050565b6000613f5f6006836142fe565b9150613f6a82614647565b602082019050919050565b6000613f82600b836142fe565b9150613f8d82614670565b602082019050919050565b6000613fa5603b836142fe565b9150613fb082614699565b604082019050919050565b613fc481614474565b82525050565b613fd38161447e565b82525050565b6000602082019050613fee6000830184613e4d565b92915050565b60006020820190506140096000830184613e2f565b92915050565b60006040820190506140246000830185613e4d565b6140316020830184613ee7565b9392505050565b600060408201905061404d6000830185613e4d565b61405a6020830184613fbb565b9392505050565b600060c0820190506140766000830189613e4d565b6140836020830188613fbb565b6140906040830187613ee7565b61409d6060830186613ee7565b6140aa6080830185613e4d565b6140b760a0830184613fbb565b979650505050505050565b60006020820190506140d76000830184613eba565b92915050565b60006020820190506140f26000830184613ec9565b92915050565b600060208201905061410d6000830184613ed8565b92915050565b60006080820190506141286000830187613ee7565b818103602083015261413a8186613e5c565b90506141496040830185613e4d565b6141566060830184613fbb565b95945050505050565b600060208201905081810360008301526141798184613ef6565b905092915050565b6000602082019050818103600083015261419a81613f2f565b9050919050565b600060208201905081810360008301526141ba81613f52565b9050919050565b600060208201905081810360008301526141da81613f75565b9050919050565b600060208201905081810360008301526141fa81613f98565b9050919050565b60006020820190506142166000830184613fbb565b92915050565b600060a0820190506142316000830188613fbb565b61423e6020830187613ee7565b81810360408301526142508186613e5c565b905061425f6060830185613e4d565b61426c6080830184613fbb565b9695505050505050565b600060408201905061428b6000830185613fbb565b6142986020830184613fbb565b9392505050565b60006020820190506142b46000830184613fca565b92915050565b6000819050602082019050919050565b600081519050919050565b600081519050919050565b6000602082019050919050565b600082825260208201905092915050565b600082825260208201905092915050565b600061431a82614474565b915061432583614474565b9250827fffffffffffffffffffffffffffffffffffffffffffffffffffffffffffffffff0382111561435a57614359614580565b5b828201905092915050565b600061437082614474565b915061437b83614474565b92508261438b5761438a6145af565b5b828204905092915050565b60006143a182614474565b91506143ac83614474565b9250817fffffffffffffffffffffffffffffffffffffffffffffffffffffffffffffffff04831182151516156143e5576143e4614580565b5b828202905092915050565b60006143fb82614474565b915061440683614474565b92508282101561441957614418614580565b5b828203905092915050565b600061442f82614454565b9050919050565b600061444182614454565b9050919050565b60008115159050919050565b600073ffffffffffffffffffffffffffffffffffffffff82169050919050565b6000819050919050565b600060ff82169050919050565b6000614496826144f7565b9050919050565b60006144a8826144af565b9050919050565b60006144ba82614454565b9050919050565b60006144cc826144d3565b9050919050565b60006144de82614454565b9050919050565b60006144f082614474565b9050919050565b600061450282614509565b9050919050565b600061451482614454565b9050919050565b60005b8381101561453957808201518184015260208101905061451e565b83811115614548576000848401525b50505050565b6000600282049050600182168061456657607f821691505b6020821081141561457a576145796145de565b5b50919050565b7f4e487b7100000000000000000000000000000000000000000000000000000000600052601160045260246000fd5b7f4e487b7100000000000000000000000000000000000000000000000000000000600052601260045260246000fd5b7f4e487b7100000000000000000000000000000000000000000000000000000000600052602260045260246000fd5b6000601f19601f8301169050919050565b7f476173206d757374206265206c6f776572207468616e20373530303030000000600082015250565b7f214f574e45520000000000000000000000000000000000000000000000000000600082015250565b7f21415554484f52495a4544000000000000000000000000000000000000000000600082015250565b7f546f74616c206665652073686f756c64206e6f7420626520677265617465722060008201527f7468616e20312f34206f66206665652064656e6f6d696e61746f720000000000602082015250565b6146f181614424565b81146146fc57600080fd5b50565b61470881614436565b811461471357600080fd5b50565b61471f81614448565b811461472a57600080fd5b50565b61473681614474565b811461474157600080fd5b5056fea2646970667358221220756dae1af8c7161f0eb42b21ab91ba8a171644f379e185d96dac4e5d441ec53164736f6c6343000804003360806040523480156200001157600080fd5b50604051620023ba380380620023ba833981810160405281019062000037919062000214565b336000806101000a81548173ffffffffffffffffffffffffffffffffffffffff021916908373ffffffffffffffffffffffffffffffffffffffff16021790555081600160006101000a81548173ffffffffffffffffffffffffffffffffffffffff021916908373ffffffffffffffffffffffffffffffffffffffff16021790555080600260006101000a81548173ffffffffffffffffffffffffffffffffffffffff021916908373ffffffffffffffffffffffffffffffffffffffff1602179055506ec097ce7bc90715b34b9f1000000000600b81905550610e10600c81905550600160009054906101000a900473ffffffffffffffffffffffffffffffffffffffff1673ffffffffffffffffffffffffffffffffffffffff1663313ce5676040518163ffffffff1660e01b815260040160206040518083038186803b1580156200018157600080fd5b505afa15801562000196573d6000803e3d6000fd5b505050506040513d601f19601f82011682018060405250810190620001bc919062000255565b600a620001ca9190620002dc565b6001620001d8919062000419565b600d81905550505062000535565b600081519050620001f78162000501565b92915050565b6000815190506200020e816200051b565b92915050565b600080604083850312156200022857600080fd5b60006200023885828601620001e6565b92505060206200024b85828601620001e6565b9150509250929050565b6000602082840312156200026857600080fd5b60006200027884828501620001fd565b91505092915050565b6000808291508390505b6001851115620002d357808604811115620002ab57620002aa620004c5565b5b6001851615620002bb5780820291505b8081029050620002cb85620004f4565b94506200028b565b94509492505050565b6000620002e982620004ae565b9150620002f683620004b8565b9250620003257fffffffffffffffffffffffffffffffffffffffffffffffffffffffffffffffff84846200032d565b905092915050565b6000826200033f576001905062000412565b816200034f576000905062000412565b81600181146200036857600281146200037357620003a9565b600191505062000412565b60ff841115620003885762000387620004c5565b5b8360020a915084821115620003a257620003a1620004c5565b5b5062000412565b5060208310610133831016604e8410600b8410161715620003e35782820a905083811115620003dd57620003dc620004c5565b5b62000412565b620003f2848484600162000281565b925090508184048111156200040c576200040b620004c5565b5b81810290505b9392505050565b60006200042682620004ae565b91506200043383620004ae565b9250817fffffffffffffffffffffffffffffffffffffffffffffffffffffffffffffffff04831182151516156200046f576200046e620004c5565b5b828202905092915050565b600062000487826200048e565b9050919050565b600073ffffffffffffffffffffffffffffffffffffffff82169050919050565b6000819050919050565b600060ff82169050919050565b7f4e487b7100000000000000000000000000000000000000000000000000000000600052601160045260246000fd5b60008160011c9050919050565b6200050c816200047a565b81146200051857600080fd5b50565b6200052681620004b8565b81146200053257600080fd5b50565b611e7580620005456000396000f3fe60806040526004361061011f5760003560e01c8063d0e30db0116100a0578063f0fc6bca11610064578063f0fc6bca146103e0578063f7c618c1146103f7578063f887ea4014610422578063ffb2c4791461044d578063ffd49c84146104765761011f565b8063d0e30db014610318578063d4fda1f214610322578063e2d2e2191461035f578063ecd0c0c31461038a578063efca2eed146103b55761011f565b80634fab0ae8116100e75780634fab0ae81461020957806366817df514610234578063997664d714610271578063ab377daa1461029c578063ce7c2ac2146102d95761011f565b806311ce023d1461012457806314b6ca961461014f57806328fd3198146101785780632d48e896146101b55780633a98ef39146101de575b600080fd5b34801561013057600080fd5b506101396104a1565b6040516101469190611b11565b60405180910390f35b34801561015b57600080fd5b5061017660048036038101906101719190611888565b6104a7565b005b34801561018457600080fd5b5061019f600480360381019061019a9190611836565b610766565b6040516101ac9190611b11565b60405180910390f35b3480156101c157600080fd5b506101dc60048036038101906101d7919061193f565b610880565b005b3480156101ea57600080fd5b506101f36108ea565b6040516102009190611b11565b60405180910390f35b34801561021557600080fd5b5061021e6108f0565b60405161022b9190611b11565b60405180910390f35b34801561024057600080fd5b5061025b60048036038101906102569190611836565b6108f6565b6040516102689190611b11565b60405180910390f35b34801561027d57600080fd5b5061028661090e565b6040516102939190611b11565b60405180910390f35b3480156102a857600080fd5b506102c360048036038101906102be91906118ed565b610914565b6040516102d09190611a4b565b60405180910390f35b3480156102e557600080fd5b5061030060048036038101906102fb9190611836565b610953565b60405161030f93929190611b2c565b60405180910390f35b61032061097d565b005b34801561032e57600080fd5b5061034960048036038101906103449190611836565b610e5c565b6040516103569190611b11565b60405180910390f35b34801561036b57600080fd5b50610374610e74565b6040516103819190611b11565b60405180910390f35b34801561039657600080fd5b5061039f610e7a565b6040516103ac9190611a4b565b60405180910390f35b3480156103c157600080fd5b506103ca610e9e565b6040516103d79190611b11565b60405180910390f35b3480156103ec57600080fd5b506103f5610ea4565b005b34801561040357600080fd5b5061040c610eaf565b6040516104199190611a8f565b60405180910390f35b34801561042e57600080fd5b50610437610ed5565b6040516104449190611aaa565b60405180910390f35b34801561045957600080fd5b50610474600480360381019061046f91906118ed565b610efb565b005b34801561048257600080fd5b5061048b6110db565b6040516104989190611b11565b60405180910390f35b600b5481565b60008054906101000a900473ffffffffffffffffffffffffffffffffffffffff1673ffffffffffffffffffffffffffffffffffffffff163373ffffffffffffffffffffffffffffffffffffffff16146104ff57600080fd5b6000600660008473ffffffffffffffffffffffffffffffffffffffff1673ffffffffffffffffffffffffffffffffffffffff16815260200190815260200160002060000154111561055457610553826110e1565b5b6000811180156105a657506000600660008473ffffffffffffffffffffffffffffffffffffffff1673ffffffffffffffffffffffffffffffffffffffff16815260200190815260200160002060000154145b156105b9576105b482611388565b61061b565b60008114801561060b57506000600660008473ffffffffffffffffffffffffffffffffffffffff1673ffffffffffffffffffffffffffffffffffffffff16815260200190815260200160002060000154115b1561061a5761061982611437565b5b5b61068481610676600660008673ffffffffffffffffffffffffffffffffffffffff1673ffffffffffffffffffffffffffffffffffffffff168152602001908152602001600020600001546007546116d690919063ffffffff16565b6116ec90919063ffffffff16565b60078190555080600660008473ffffffffffffffffffffffffffffffffffffffff1673ffffffffffffffffffffffffffffffffffffffff1681526020019081526020016000206000018190555061071c600660008473ffffffffffffffffffffffffffffffffffffffff1673ffffffffffffffffffffffffffffffffffffffff16815260200190815260200160002060000154611702565b600660008473ffffffffffffffffffffffffffffffffffffffff1673ffffffffffffffffffffffffffffffffffffffff168152602001908152602001600020600101819055505050565b600080600660008473ffffffffffffffffffffffffffffffffffffffff1673ffffffffffffffffffffffffffffffffffffffff1681526020019081526020016000206000015414156107bb576000905061087b565b6000610808600660008573ffffffffffffffffffffffffffffffffffffffff1673ffffffffffffffffffffffffffffffffffffffff16815260200190815260200160002060000154611702565b90506000600660008573ffffffffffffffffffffffffffffffffffffffff1673ffffffffffffffffffffffffffffffffffffffff1681526020019081526020016000206001015490508082116108635760009250505061087b565b61087681836116d690919063ffffffff16565b925050505b919050565b60008054906101000a900473ffffffffffffffffffffffffffffffffffffffff1673ffffffffffffffffffffffffffffffffffffffff163373ffffffffffffffffffffffffffffffffffffffff16146108d857600080fd5b81600c8190555080600d819055505050565b60075481565b600d5481565b60056020528060005260406000206000915090505481565b60085481565b6003818154811061092457600080fd5b906000526020600020016000915054906101000a900473ffffffffffffffffffffffffffffffffffffffff1681565b60066020528060005260406000206000915090508060000154908060010154908060020154905083565b60008054906101000a900473ffffffffffffffffffffffffffffffffffffffff1673ffffffffffffffffffffffffffffffffffffffff163373ffffffffffffffffffffffffffffffffffffffff16146109d557600080fd5b6000600160009054906101000a900473ffffffffffffffffffffffffffffffffffffffff1673ffffffffffffffffffffffffffffffffffffffff166370a08231306040518263ffffffff1660e01b8152600401610a329190611a4b565b60206040518083038186803b158015610a4a57600080fd5b505afa158015610a5e573d6000803e3d6000fd5b505050506040513d601f19601f82011682018060405250810190610a829190611916565b90506000600267ffffffffffffffff811115610ac7577f4e487b7100000000000000000000000000000000000000000000000000000000600052604160045260246000fd5b604051908082528060200260200182016040528015610af55781602001602082028036833780820191505090505b509050600260009054906101000a900473ffffffffffffffffffffffffffffffffffffffff1673ffffffffffffffffffffffffffffffffffffffff1663ad5c46486040518163ffffffff1660e01b815260040160206040518083038186803b158015610b6057600080fd5b505afa158015610b74573d6000803e3d6000fd5b505050506040513d601f19601f82011682018060405250810190610b98919061185f565b81600081518110610bd2577f4e487b7100000000000000000000000000000000000000000000000000000000600052603260045260246000fd5b602002602001019073ffffffffffffffffffffffffffffffffffffffff16908173ffffffffffffffffffffffffffffffffffffffff1681525050600160009054906101000a900473ffffffffffffffffffffffffffffffffffffffff1681600181518110610c69577f4e487b7100000000000000000000000000000000000000000000000000000000600052603260045260246000fd5b602002602001019073ffffffffffffffffffffffffffffffffffffffff16908173ffffffffffffffffffffffffffffffffffffffff1681525050600260009054906101000a900473ffffffffffffffffffffffffffffffffffffffff1673ffffffffffffffffffffffffffffffffffffffff1663b6f9de953460008430426040518663ffffffff1660e01b8152600401610d069493929190611ac5565b6000604051808303818588803b158015610d1f57600080fd5b505af1158015610d33573d6000803e3d6000fd5b50505050506000610df783600160009054906101000a900473ffffffffffffffffffffffffffffffffffffffff1673ffffffffffffffffffffffffffffffffffffffff166370a08231306040518263ffffffff1660e01b8152600401610d999190611a4b565b60206040518083038186803b158015610db157600080fd5b505afa158015610dc5573d6000803e3d6000fd5b505050506040513d601f19601f82011682018060405250810190610de99190611916565b6116d690919063ffffffff16565b9050610e0e816008546116ec90919063ffffffff16565b600881905550610e51610e40600754610e3284600b5461173490919063ffffffff16565b61174a90919063ffffffff16565b600a546116ec90919063ffffffff16565b600a81905550505050565b60046020528060005260406000206000915090505481565b600a5481565b60008054906101000a900473ffffffffffffffffffffffffffffffffffffffff1681565b60095481565b610ead336110e1565b565b600160009054906101000a900473ffffffffffffffffffffffffffffffffffffffff1681565b600260009054906101000a900473ffffffffffffffffffffffffffffffffffffffff1681565b60008054906101000a900473ffffffffffffffffffffffffffffffffffffffff1673ffffffffffffffffffffffffffffffffffffffff163373ffffffffffffffffffffffffffffffffffffffff1614610f5357600080fd5b600060038054905090506000811415610f6c57506110d8565b6000805a905060005b8483108015610f8357508381105b156110d35783600e5410610f9a576000600e819055505b6110096003600e5481548110610fd9577f4e487b7100000000000000000000000000000000000000000000000000000000600052603260045260246000fd5b9060005260206000200160009054906101000a900473ffffffffffffffffffffffffffffffffffffffff16611760565b1561107e5761107d6003600e548154811061104d577f4e487b7100000000000000000000000000000000000000000000000000000000600052603260045260246000fd5b9060005260206000200160009054906101000a900473ffffffffffffffffffffffffffffffffffffffff166110e1565b5b6110a36110945a846116d690919063ffffffff16565b846116ec90919063ffffffff16565b92505a9150600e60008154809291906110bb90611d53565b919050555080806110cb90611d53565b915050610f75565b505050505b50565b600c5481565b6000600660008373ffffffffffffffffffffffffffffffffffffffff1673ffffffffffffffffffffffffffffffffffffffff16815260200190815260200160002060000154141561113157611385565b600061113c82610766565b905060008111156113835761115c816009546116ec90919063ffffffff16565b600981905550600160009054906101000a900473ffffffffffffffffffffffffffffffffffffffff1673ffffffffffffffffffffffffffffffffffffffff1663a9059cbb83836040518363ffffffff1660e01b81526004016111bf929190611a66565b602060405180830381600087803b1580156111d957600080fd5b505af11580156111ed573d6000803e3d6000fd5b505050506040513d601f19601f8201168201806040525081019061121191906118c4565b5042600560008473ffffffffffffffffffffffffffffffffffffffff1673ffffffffffffffffffffffffffffffffffffffff168152602001908152602001600020819055506112ab81600660008573ffffffffffffffffffffffffffffffffffffffff1673ffffffffffffffffffffffffffffffffffffffff168152602001908152602001600020600201546116ec90919063ffffffff16565b600660008473ffffffffffffffffffffffffffffffffffffffff1673ffffffffffffffffffffffffffffffffffffffff1681526020019081526020016000206002018190555061133c600660008473ffffffffffffffffffffffffffffffffffffffff1673ffffffffffffffffffffffffffffffffffffffff16815260200190815260200160002060000154611702565b600660008473ffffffffffffffffffffffffffffffffffffffff1673ffffffffffffffffffffffffffffffffffffffff168152602001908152602001600020600101819055505b505b50565b600380549050600460008373ffffffffffffffffffffffffffffffffffffffff1673ffffffffffffffffffffffffffffffffffffffff168152602001908152602001600020819055506003819080600181540180825580915050600190039060005260206000200160009091909190916101000a81548173ffffffffffffffffffffffffffffffffffffffff021916908373ffffffffffffffffffffffffffffffffffffffff16021790555050565b6003600160038054905061144b9190611c7d565b81548110611482577f4e487b7100000000000000000000000000000000000000000000000000000000600052603260045260246000fd5b9060005260206000200160009054906101000a900473ffffffffffffffffffffffffffffffffffffffff166003600460008473ffffffffffffffffffffffffffffffffffffffff1673ffffffffffffffffffffffffffffffffffffffff1681526020019081526020016000205481548110611526577f4e487b7100000000000000000000000000000000000000000000000000000000600052603260045260246000fd5b9060005260206000200160006101000a81548173ffffffffffffffffffffffffffffffffffffffff021916908373ffffffffffffffffffffffffffffffffffffffff160217905550600460008273ffffffffffffffffffffffffffffffffffffffff1673ffffffffffffffffffffffffffffffffffffffff1681526020019081526020016000205460046000600360016003805490506115c69190611c7d565b815481106115fd577f4e487b7100000000000000000000000000000000000000000000000000000000600052603260045260246000fd5b9060005260206000200160009054906101000a900473ffffffffffffffffffffffffffffffffffffffff1673ffffffffffffffffffffffffffffffffffffffff1673ffffffffffffffffffffffffffffffffffffffff16815260200190815260200160002081905550600380548061169e577f4e487b7100000000000000000000000000000000000000000000000000000000600052603160045260246000fd5b6001900381819060005260206000200160006101000a81549073ffffffffffffffffffffffffffffffffffffffff0219169055905550565b600081836116e49190611c7d565b905092915050565b600081836116fa9190611b9c565b905092915050565b600061172d600b5461171f600a548561173490919063ffffffff16565b61174a90919063ffffffff16565b9050919050565b600081836117429190611c23565b905092915050565b600081836117589190611bf2565b905092915050565b600042600c54600560008573ffffffffffffffffffffffffffffffffffffffff1673ffffffffffffffffffffffffffffffffffffffff168152602001908152602001600020546117b09190611b9c565b1080156117c65750600d546117c483610766565b115b9050919050565b6000813590506117dc81611dfa565b92915050565b6000815190506117f181611dfa565b92915050565b60008151905061180681611e11565b92915050565b60008135905061181b81611e28565b92915050565b60008151905061183081611e28565b92915050565b60006020828403121561184857600080fd5b6000611856848285016117cd565b91505092915050565b60006020828403121561187157600080fd5b600061187f848285016117e2565b91505092915050565b6000806040838503121561189b57600080fd5b60006118a9858286016117cd565b92505060206118ba8582860161180c565b9150509250929050565b6000602082840312156118d657600080fd5b60006118e4848285016117f7565b91505092915050565b6000602082840312156118ff57600080fd5b600061190d8482850161180c565b91505092915050565b60006020828403121561192857600080fd5b600061193684828501611821565b91505092915050565b6000806040838503121561195257600080fd5b60006119608582860161180c565b92505060206119718582860161180c565b9150509250929050565b60006119878383611993565b60208301905092915050565b61199c81611cb1565b82525050565b6119ab81611cb1565b82525050565b60006119bc82611b73565b6119c68185611b8b565b93506119d183611b63565b8060005b83811015611a025781516119e9888261197b565b97506119f483611b7e565b9250506001810190506119d5565b5085935050505092915050565b611a1881611cf9565b82525050565b611a2781611d1d565b82525050565b611a3681611d41565b82525050565b611a4581611cef565b82525050565b6000602082019050611a6060008301846119a2565b92915050565b6000604082019050611a7b60008301856119a2565b611a886020830184611a3c565b9392505050565b6000602082019050611aa46000830184611a0f565b92915050565b6000602082019050611abf6000830184611a1e565b92915050565b6000608082019050611ada6000830187611a2d565b8181036020830152611aec81866119b1565b9050611afb60408301856119a2565b611b086060830184611a3c565b95945050505050565b6000602082019050611b266000830184611a3c565b92915050565b6000606082019050611b416000830186611a3c565b611b4e6020830185611a3c565b611b5b6040830184611a3c565b949350505050565b6000819050602082019050919050565b600081519050919050565b6000602082019050919050565b600082825260208201905092915050565b6000611ba782611cef565b9150611bb283611cef565b9250827fffffffffffffffffffffffffffffffffffffffffffffffffffffffffffffffff03821115611be757611be6611d9c565b5b828201905092915050565b6000611bfd82611cef565b9150611c0883611cef565b925082611c1857611c17611dcb565b5b828204905092915050565b6000611c2e82611cef565b9150611c3983611cef565b9250817fffffffffffffffffffffffffffffffffffffffffffffffffffffffffffffffff0483118215151615611c7257611c71611d9c565b5b828202905092915050565b6000611c8882611cef565b9150611c9383611cef565b925082821015611ca657611ca5611d9c565b5b828203905092915050565b6000611cbc82611ccf565b9050919050565b60008115159050919050565b600073ffffffffffffffffffffffffffffffffffffffff82169050919050565b6000819050919050565b6000611d0482611d0b565b9050919050565b6000611d1682611ccf565b9050919050565b6000611d2882611d2f565b9050919050565b6000611d3a82611ccf565b9050919050565b6000611d4c82611cef565b9050919050565b6000611d5e82611cef565b91507fffffffffffffffffffffffffffffffffffffffffffffffffffffffffffffffff821415611d9157611d90611d9c565b5b600182019050919050565b7f4e487b7100000000000000000000000000000000000000000000000000000000600052601160045260246000fd5b7f4e487b7100000000000000000000000000000000000000000000000000000000600052601260045260246000fd5b611e0381611cb1565b8114611e0e57600080fd5b50565b611e1a81611cc3565b8114611e2557600080fd5b50565b611e3181611cef565b8114611e3c57600080fd5b5056fea264697066735822122008fdf9c50ab7c70d412312ea450945507a3916f189df1d8ee3bfb3df789a89df64736f6c63430008040033",
  "linkReferences": {},
  "deployedLinkReferences": {}
}